:020000040000fa
:080000000002040000000000f2
:020000040000fa
:100400002f0322000eb722000e018800000000001a
:1004100000012000200288000c00070040f92000a5
:100420000100200011000700000020000000e00093
:10043000020032000000020000000000bc5d02006b
:10044000000000000040da000000fe004440a90067
:10045000000020000000e000030032000000200047
:10046000a00188004440a800000006009101880017
:10047000800078000000eb0015003700e2804000ab
:1004800032a0b4009101ba00e280400032a0b40072
:100490009102ba00e280400032a0b4000002eb00fa
:1004a000472bde00f507b200602ce10004003a00a3
:1004b0000059eb008301e900fdff3e000400370016
:1004c0006128e100010032000082eb000400070017
:1004d0001101ba000200e000e8ff3a000000060047
:1004e0003159ba008301e9000c0032002159ba00e9
:1004f0008301e900080032000400e00003003a0034
:10050000e280400032a0b400f5ff370011d9ba00f4
:100510008301e900faff3a008100e800e180400031
:1005200032a0b4000000060000000000000000003f
:1005300000000000000000003400f800881f780070
:1005400008002000a80188004f0478000000fa008d
:1005500021e1a8008460a9000080fa003400f900bd
:10056000004006003400f800881f780008002000d2
:10057000a80188004f0478000000fa0084e0a90078
:100580000080fa003400f900004006003400f80052
:10059000881f780008002000a80188004f04780018
:1005a0000000fa008500a9000080fa003400f9007c
:1005b000004006003400f800881f78000800200082
:1005c000a80188004f0478000000fa000080fa00bb
:1005d0003400f900004006003400f800881f78005d
:1005e00008002000a80188004f0478000000fa00ed
:1005f0008780a9000080fa003400f900004006005e
:100600000200fa00000f7800010037000a0007001e
:1006100014c0b3009e027800e08f520001003c003d
:100620000042eb001e0fe900e04f5200f7ff3a00d6
:100630000080fa00000006000000fa008760a900b0
:100640000002eb00a408880024c32900d408880015
:100650001fe1a80000000000350480000480200095
:1006600004826200e00f5200fbff32008760a900a5
:100670001fe1a9000080fa00000006000000fa0057
:100680000002eb00a40888001fe1a80024f9200064
:10069000d40888008760a9000000000035048000ad
:1006a0000480200004826200e00f5200fbff320051
:1006b0008760a9001fe1a9000080fa000000060081
:1006c0000000fa000002eb00a40888001fe1a80067
:1006d00024182000d40888008760a90000000000ca
:1006e000350480000480200004826200e00f520084
:1006f000fbff32008760a9001fe1a9000080fa001b
:10070000000006000000fa000002eb00a4088800c8
:100710001fe1a80094012000d40888008760a90088
:100720000000000035048000048020000482620084
:10073000e00f5200fbff32008760a9001fe1a90013
:100740000080fa00000006000200fa00000f7800a6
:1007500003003700b8ff070084c12f001e0f4200be
:10076000743e20009e027800848f5200f9ff3e0004
:100770001e027800e00f5200140032000002eb006d
:10078000a40888001fe1a8009e02780084022000cf
:1007900004aab9000402780070025200d40888004c
:1007a0008760a9000000000035048000048020005c
:1007b00004826200e00f5200fbff32008760a90054
:1007c0001fe1a90000000000010037000000000048
:1007d0000080fa00000006000800fa006022b8005d
:1007e000048fbe0004a0250025262000048fbe0033
:1007f0001e02be00028c2000030020000400be0088
:10080000860407000002be00048fbe000402280018
:100810002407980014082000340798003e02900036
:10082000044278009e027800844178002e019000f6
:100830008500780010c0b300440007000080fa0073
:10084000000006000000fa000080fa000000060028
:100850000800fa00047d200005002000048fbe007f
:10086000040028002407980014082000340798008a
:100870003e029000044278009e0278008441780095
:100880002e0190008500780030c0b3002f000700d3
:100890000080fa00000006000800fa0004c42900e5
:1008a00005002000048fbe000400280024079800e3
:1008b00014002000340798003e02900004427800a3
:1008c0009e027800844178002e0190008500780017
:1008d00040c0b3001d0007000080fa0000000600c1
:1008e0000800fa006022b800048fbe0004a02500b2
:1008f00025262000048fbe001e02be00028c2000b0
:10090000030020000400be00440407000002be00f3
:10091000048fbe0004022800240798001400200061
:10092000340798003e029000044278009e0278004e
:10093000844178002e0190008500780010c0b3003b
:10094000020007000080fa00000006000800fa001c
:10095000004f78001107980022079800634798001d
:100960009e4278000582fb006123b9000082eb0003
:100970008082eb000602420087824a004600200087
:1009800007002000860f5200878f5a00a9003e0002
:1009900004600100040037002400370044003700e1
:1009a00063003700830037006e42900067426200a8
:1009b00067426200674262000482fb0067026200d5
:1009c0004c22dd0026058000f5ff2800850263002b
:1009d00004827200240588001e029000140888001a
:1009e0000002eb0004088800ae0290002508880091
:1009f0006e4290000482fb004722de000442780031
:100a0000614262000482fb00610262004322dd0059
:100a1000a604800075ff2f00850263000482720027
:100a2000a40488008460a900830037006e4290000f
:100a30006742620067426200674262000482fb0014
:100a4000670262004c22dd0036058000f5ff2800b9
:100a50008502630004827200340588001e02900043
:100a6000640888000002eb0034088800ae029000a1
:100a7000850888006e4290000482fb004722de0059
:100a800004427800614262000482fb00610262005d
:100a90004722dd00a6048000f5f72f0085026300e1
:100aa00004827200a404880084e0a9006200370078
:100ab0006e429000674262006742620067426200d5
:100ac0000482fb00670262004605800085ff2f005c
:100ad0008502630004827200440588001e029000b3
:100ae000740888000002eb0054088800ae029000f1
:100af000950888006e4290000482fb004722de00c9
:100b000004427800614262000482fb0061026200dc
:100b10004822dd00a6048000f5ef2f008502630067
:100b200004827200a40488008500a90042003700f6
:100b30006e42900067426200674262006742620054
:100b40000482fb00670262004c22dd008605800003
:100b5000f5ff280085026300048272008405880086
:100b60001e029000d40888000002eb00a408880050
:100b7000ae029000f50888006e4290000482fb00ef
:100b80004722de0004427800614262000482fb00da
:100b9000610262004b22dd00b6048000f57f2f0069
:100ba0008502630004827200b40488008760a90093
:100bb000210037006e429000674262006742620087
:100bc000674262000482fb006702620096058000b3
:100bd00085ff2f008502630004827200940588005f
:100be0001e029000e40888000002eb00c4088800a0
:100bf000ae029000050988006e4290000482fb005e
:100c00004722de0004427800614262000482fb0059
:100c1000610262004c22dd00b6048000f5ff2e0068
:100c20008502630004827200b40488008780a900f2
:100c300001003700000000000080fa0000000600fc
:100c40003600f800809fbe00829fbe00849fbe00d9
:100c5000869fbe003400f80000002000a00188003c
:100c60000000fa007c2a0700f462a9001209a9001a
:100c70001249a8008640a9000080fa003400f9005b
:100c80004f03be004f02be004f01be004f00be002a
:100c90003600f900004006003600f800809fbe00d4
:100ca000829fbe00849fbe00869fbe003400f80075
:100cb00000002000a00188000000fa00662a07005a
:100cc000f462a9001209a9001229a80090e0a90065
:100cd0000080fa003400f9004f03be004f02be004e
:100ce0004f01be004f00be003600f9000040060074
:100cf0003600f800809fbe00829fbe00849fbe0029
:100d0000869fbe003400f80000002000a00188008b
:100d10000000fa00502a0700f462a9001209a90095
:100d20001229a8009100a9000080fa003400f900ff
:100d30004f03be004f02be004f01be004f00be0079
:100d40003600f900004006003600f800809fbe0023
:100d5000829fbe00849fbe00869fbe003400f800c4
:100d600000002000a00188000000fa001249a8003d
:100d7000392a0700f462a9001209a9009120a900ec
:100d80000080fa003400f9004f03be004f02be009d
:100d90004f01be004f00be003600f90000400600c3
:100da0001000fa0040079800510798006207980069
:100db00073079800140c2800040f78004e0290006e
:100dc000142a88001e027800040078005c000700e6
:100dd00014042800040f78005e029000342a880072
:100de0001e02780004007800570007001404280051
:100df000040f78006e029000542a88001e027800ca
:100e0000040078005200070014042800040f780042
:100e10007e029000742a88001e0278000400780088
:100e20004d00070061002000100020000d000700a9
:100e30006100200010002000180007006100200061
:100e40001000200023000700610020001000200097
:100e50002d0007000080fa00000006000040da00c4
:100e60000000fe008640a900e10f500002003a0099
:100e70009640a800010037009640a90067826000f4
:100e80004822dd00f18f2f0065058000858060001d
:100e900084807000610588000000060090e0a900d1
:100ea000e10f500002003a00a0e0a8000100370066
:100eb000a0e0a900678260004c22dd00f1ff28005d
:100ec000b50680008580600084807000b1068800cf
:100ed000000006009100a900e10f500002003a0056
:100ee000a100a80001003700a100a90067826000ee
:100ef00081ff2f00c506800085806000848070001f
:100f0000c1068800000006009120a900e10f5000f2
:100f100002003a00a120a80001003700a120a9008a
:100f2000678260004422dd00f1f82f00c5068000d2
:100f30008580600084807000c10688000000060083
:100f4000002a880000000600202a88000000060011
:100f5000402a880000000600602a88000000060081
:100f60008fc0a9008fe0a9009000a9009020a900df
:100f70009040a9009060a9008b20a9009fc0a90003
:100f80009fe0a900a000a900a020a900a040a900fe
:100f9000a060a9009b20a9000002eb0004208800ab
:100fa0000421880004228800042388000424880087
:100fb000042588000426880000000600002288001e
:100fc0001122880042228800a322880084228800ff
:100fd00000000600102088000000060000208800a5
:100fe000212088005220880033208800000006005d
:100ff000502288006122880000000600302288000c
:10100000000006008820a900e7026000c42add0075
:10101000f4f82f00a60580000602620005027200a7
:10102000a4058800680060004300de0061006000e5
:1010300000004000d4ff2f00c504800005026200bc
:1010400000007200c0048800000006000013800049
:101050006140600000000600101388002113880022
:101060000213880000000600041380006102620081
:101070000080eb000a00320060c2a900044020009a
:101080001513800005026200e00f520002003200da
:10109000401380000000060040138000f00fb200f3
:1010a00000000600044020001513800005026200c5
:1010b000e00f520001003a00f00fb2004013880028
:1010c0000000060003f0a200889fbe008a9fbe00b9
:1010d0008c1f78008c010700930133006450e100fd
:1010e0004f0032006420e1005200320003826c00a5
:1010f00007003b000905d0000306d000820f540012
:101100000c065d00020039000200320089017800ff
:10111000030678008582550004003d000003fd00b1
:101120008103fd008502ea008b854200840f720076
:1011300002003b0060001000e08018006011b80061
:101140000005eb007a28e1000a003900060078006b
:10115000c75ddd00f707b200878075002d003700fe
:10116000828171000a017800610560008180d100f0
:101170000080d3008502e900f9ff3b00060440002f
:101180008784480002003b0060041400e0841c00d7
:101190000988a300070032008a81710082817100f2
:1011a000610164008904d1000884d3008b05e80044
:1011b000170037000978a30013003a000b00e00085
:1011c000130034008b05e9000804440089844c00b6
:1011d0000a4474000978a3000d003a000b00e000f7
:1011e000070034008b05e9000804440089844c00a2
:1011f00001003a000b0020000978a300f7ff32003d
:101200000001eb0002003700828171000a017800c2
:10121000020107000cf0a70001f0a0004b0137000d
:101220006420e10002003a00838f6c004b01330020
:101230000801be000200be0044013700889fbe00c6
:101240008a9fbe008c1f78002f01070036013300f3
:1012500003866c006450e1002e0032006420e1003f
:10126000330032006150e1002f0032006120e100c4
:101270003100320085855500eb07b00009002000e1
:1012800008042000050037000804440089844c004d
:101290000a0031000603430087834b00000153001e
:1012a00081815b00f8ff33000203be000800a0004c
:1012b0000804440089844c00f6ff3900c639dd007b
:1012c0008301730001003200130020008904d10063
:1012d0000884d3000998a300050032000800a70085
:1012e0000300a0008904d1000884d3008b05e80026
:1012f0008904d1000884d3000001eb000281d200f0
:10130000c600070001f0a1000cf0a70001f0a0004a
:101310000e0137006420e100100132000801be0018
:101320000200be00f7ff37006120e1000b01320030
:101330006000b800f3ff37000000200001f827002c
:10134000f0ff3700839f68000100e00002003d00cd
:1013500060001000e08018000300e00002003d0083
:1013600060011100e0811900ac0107004f00e000ae
:1013700002003b0060001000e08018000000060042
:10138000889fbe008a9fbe008c9fbe000004be00e6
:10139000c80007000800be006420e10048003e00cd
:1013a0005500320072212700132b2400580007003b
:1013b00047003c000800be00c2ec2800e32c2c00d3
:1013c00051000700470035000800be0001f0a100f1
:1013d00002002000033823004b00070043003500c3
:1013e0000800be00b2a32a0083fb230057010700b8
:1013f0000200200003f0230001f0a70003f0a0008a
:1014000031ff0700440007000005be007e00070012
:1014100001f0a2000006be000200280013f3230022
:101420004a0107000801be0027ff0700809fbe0099
:101430000c00be0032082800e3952b004301070092
:101440004f01be0020ff07000006be000001be00e5
:101450003e010700809fbe004241250083b8230063
:101460003a0107000200200003e8230016ff0700ee
:101470000c01be00350107000006be004f00be0093
:10148000f2f92b00c3d42300300107000200200032
:1014900003f023000cff07000c01be0009ff07004a
:1014a0000001be000c00be0064ff07000200200027
:1014b00003f0230004ff070061014500aa000700b4
:1014c0004f06be004f05be004f04be0000000600e0
:1014d00001f82700000020002202200082f188008d
:1014e000f7ff37006000b800fbff370001f823006a
:1014f00000002000f2ff370009f8a300f0ff3200df
:101500006000b800eeff37001400200060013700d3
:10151000f4ff2f005e0137000001be0065000700e8
:101520000470a70003f0a1006509b10016003200a5
:101530000d0035006828e10006003500f0ff2f009f
:10154000f1ff27000300e00013003b00010028002a
:101550000000050000004000818048008502e9008d
:10156000fcff3a0008003700f88f420002003c0000
:101570008000eb00000005008100d1000080d30056
:101580008502e800fcff3a000300e00002003b0097
:1015900060001000e0801800000006000001be009e
:1015a000440007000470a70003f0a10003f8a300a3
:1015b00013003a006509b10010003200090035003f
:1015c0006928e10002003500010028000000050044
:1015d00000004000818048008502e900fcff3a00dd
:1015e00000000600f88f4200050035008100d100a0
:1015f0000080d3008502e800fcff3a0000000600ee
:101600008000eb00000005004f89de0082017800b9
:101610003a0137006011b80048013700810020000e
:10162000618055000b003d000b00200061fe2f0083
:101630000100e1001d00340082817100610164003d
:101640008904d1000884d3000000e800faff3a00c2
:10165000710020006100640003007000020060005f
:101660000900320061044400e0844c000988a500b0
:10167000050032008b05e8006808e10002003a002e
:101680008904d1000884d300f20f20000258e10041
:1016900005003d00c75ddd00f907b20089807500d7
:1016a00008007800000006000bf827008b00780087
:1016b00000000500c70ade00f107b200f50fb20016
:1016c00008003200e1cf4200020032000170a000a9
:1016d00024000500810f700001003200040805009d
:1016e00044000500810f700002003a00140005005c
:1016f0008502e9000000400081c04800fcff3b007b
:101700000170a000240005000004be00e9ff0700ee
:101710000003be000405be000200be00e5ff070096
:10172000844f7500000006000200be006450e10016
:10173000050036006420e100020036000968a300bd
:1017400001003a000800be000160a0004f067800ca
:101750004f05be004f04be0000000600f0ff2f0042
:10176000f1ff2700f9ff37000003be00d1ff07009b
:101770006220e100020032000600be000000060008
:1017800085024100e30f20000328e10005003c0032
:10179000a3fe2f000328e10007003d000500200004
:1017a00001003700f50f20002002200080f18800a2
:1017b0006000b80008003700130020008381520049
:1017c00005003d008100d1000080d3008301e800c6
:1017d000fcff3a0005002000c72add00f107b20037
:1017e0008580700007f0a70001f0a000000006004f
:1017f000889fbe008a9fbe008c9fbe009700070096
:10180000850478000005be006420e10049003e0028
:101810006220e10003003200090035000bf8a3004c
:10182000440032000bf8a300080032001002200030
:1018300080f18800f0ff2f00f1ff27003d00370006
:1018400001f82f00000020003a0037003d0007009b
:101850001cfe07000006be000a00be00324f20003a
:1018600053f323002aff0700060034000c00be00db
:101870003400070013fe07000006be000a00be0089
:10188000020037008904e9000c00be002d000700ab
:101890002e0007002b0007000bfe07000001be0012
:1018a0000c00be0065fe07000005be000001be0082
:1018b000260007000006be00a2f32300430d2c0003
:1018c00001fe0700809fbe000c00be00d2e327008f
:1018d000d3f02b001d0007004f01be0057fe07008c
:1018e0000006be000a01be00180007000a01be0083
:1018f000f5fd07000006be006148b90042ff070081
:101900000005be0032082800e3952b000f000700f9
:101910000c01be00ecfd07000006be000a00be0080
:101920000200280013f32300080007000c01be008a
:10193000e5fd07004f06be004f05be004f04be0088
:101940000000060003f0230002000500889fbe008f
:101950008a9fbe008c1f78006bff070072ff330068
:1019600003866c006450e100240032006420e10032
:10197000270032006150e100220032006120e100c6
:10198000210032008b854200eb07b1000134b80022
:10199000003ab8000804420089844a00013ab800bd
:1019a0000030b8008880400009014a00040033007c
:1019b0000000400081804800020149008b05e900d9
:1019c000c909dd008301700001003200130020000e
:1019d000c814de004814dd004709de001200b20022
:1019e000c808de00088470000cff070001f0a100a9
:1019f0000cf0a70001f0a00054ff37006120e100c7
:101a000056ff32000801be000200be00f7ff37009b
:101a10006150e100fcff3a0050ff37006022b8003f
:101a2000060220000000d0008180d2000482d20093
:101a30008582d2000000a0000202520083825a0078
:101a4000030031000202420083824a000000a1002c
:101a50000603e900f3ff3a00000006000003be00a1
:101a600014ff07006220e100020032000600be0001
:101a700005000500e507b100f107b20004f02300fe
:101a80008480700007f0a70001f0a000240005008a
:101a9000889fbe008a9fbe00841f78001aff07003f
:101aa0004f00780011003300f0ff2f00838f6c008f
:101ab00006003b00040565000a00a7000800370087
:101ac00009f0a6001000200008003700820f540023
:101ad000838f5c00030039001000200001003e00ed
:101ae0000000200009f0a7000000ea004f05be003a
:101af0004f04be000000e00000000600881f7800d0
:101b0000030478000300e00007003d0060001000bf
:101b1000e080180060011900e081190002003b001c
:101b200001f02d00030037000400070008f0a700b3
:101b300001f0a0004f04780000000600889fbe005e
:101b40008a9fbe000082700004027100048271004e
:101b5000260032000004be000200be006011b80082
:101b60006b092000950220000182cf000a00390095
:101b70000541b1000082cf00070039000541b100e6
:101b80000982cf00040039000541b1000882cf006e
:101b9000010039000541b100054252001200320037
:101ba0000a003b0082817100610164008100d10064
:101bb0000080d3008984d3000884d3008b05e8001b
:101bc0000442e800f7ff3a00070037000804440029
:101bd00089844c0000004800818048008b05e900a2
:101be0000442e900f9ff3a008cfe07004f05be00f1
:101bf0004f04be000000060000027800020037001b
:101c0000315a78000201e900e00f5100fcff3a0070
:041c100000000600ca
:020000040000fa
:0200000401f009
:04000c00f8ff0000f9
:020000040000fa
:0200000401f009
:040010003dff0000b0
:020000040000fa
:0200000401f009
:04001400edff0000fc
:020000040000fa
:0200000401f009
:04001800ffff0000e6
:020000040000fa
:0200000401f009
:04001c00deff000003
:020000040000fa
:100008002e070000b05c000088550000bc550000b9
:10001800ec5500001c5600002e0700002e070000bb
:100028002e0700002e0700002e0700009c0200008b
:100038002e0700002e0700002e070000b202000065
:10004800c60200002e0700002e0700002e07000041
:100058002e0700002e0700002e0700002e070000c4
:100068002e0700002e070000200600002e070000c3
:100078002e0700002e0700002e0700002e070000a4
:100088002e0700002e0700002e070000da020000ed
:10009800ec0200002e0700002e0700002e070000cb
:1000a8002e0700002e0700002e0700003040000039
:1000b8002e0700002e0700002e0700002e07000064
:1000c8002e0700002e0700002e0700002e07000054
:1000d8002e0700002e0700002e0700002e07000044
:1000e8002e0700002e0700002e0700002e07000034
:1000f8002e0700002e0700002e0700002e07000024
:100108002e0700002e0700002e0700002e07000013
:100118002e0700002e0700002e0700002e07000003
:100128002e0700002e0700002e0700002e070000f3
:100138002e0700002e0700002e0700002e070000e3
:100148002e0700002e0700002e0700002e070000d3
:100158002e0700002e0700002e0700002e070000c3
:100168002e0700002e0700002e0700002e070000b3
:100178002e0700002e0700002e0700002e070000a3
:100188002e0700002e0700002e0700002e07000093
:100198002e0700002e0700002e0700002e07000083
:1001a8002e0700002e0700002e0700002e07000073
:1001b8002e0700002e0700002e0700004c06000046
:1001c80078060000a40600002e0700002e07000095
:1001d8002e0700002e070000804f00006850000026
:1001e800da50000000510000a05100002e07000066
:0801f8002e0700002e07000095
:020000040000fa
:100208002e070000b05c000088550000bc550000b7
:10021800ec5500001c5600002e0700002e070000b9
:100228002e0700002e0700002e0700009c02000089
:100238002e0700002e0700002e070000b202000063
:10024800c60200002e0700002e0700002e0700003f
:100258002e0700002e0700002e0700002e070000c2
:100268002e0700002e070000200600002e070000c1
:100278002e0700002e0700002e0700002e070000a2
:100288002e0700002e0700002e070000da020000eb
:10029800ec0200002e0700002e0700002e070000c9
:1002a8002e0700002e0700002e0700003040000037
:1002b8002e0700002e0700002e0700002e07000062
:1002c8002e0700002e0700002e0700002e07000052
:1002d8002e0700002e0700002e0700002e07000042
:1002e8002e0700002e0700002e0700002e07000032
:1002f8002e0700002e0700002e0700002e07000022
:100308002e0700002e0700002e0700002e07000011
:100318002e0700002e0700002e0700002e07000001
:100328002e0700002e0700002e0700002e070000f1
:100338002e0700002e0700002e0700002e070000e1
:100348002e0700002e0700002e0700002e070000d1
:100358002e0700002e0700002e0700002e070000c1
:100368002e0700002e0700002e0700002e070000b1
:100378002e0700002e0700002e0700002e070000a1
:100388002e0700002e0700002e0700002e07000091
:100398002e0700002e0700002e0700002e07000081
:1003a8002e0700002e0700002e0700002e07000071
:1003b8002e0700002e0700002e0700004c06000044
:1003c80078060000a40600002e0700002e07000093
:1003d8002e0700002e070000804f00006850000024
:1003e800da50000000510000a05100002e07000064
:0803f8002e0700002e07000093
:020000040000fa
:105000000400fa00889fbe0004002c00f5772400fd
:10501000048fbe008440800095408000f4eb88003f
:1050200005ec8800864080009740800004428000a4
:10503000154280000401be000600be0021f00700fa
:105040000002be0014ec880025ec88008840800037
:105050009940800004428000154280000401be0097
:105060000400be0018f007000002be000401be00ec
:105070000800be0013f007000002be0034ec8800f8
:1050800045ec880086408000974080000442800004
:10509000154280000401be000600be000af00700b1
:1050a0000002be0054ec880065ec8800844180005a
:1050b000954180001e01be000400be005ff00700a5
:1050c0000002be0074ec880085ec8800c4418000ba
:1050d000d54180001e01be000400be0057f007004d
:1050e0000002be0094ec8800a5ec8800044180001a
:1050f000154180001e01be000400be004ff00700f5
:105100000002be00b4ec8800c5ec88004441800079
:10511000554180001e01be000400be0047f007009c
:105120000002be00d4ec8800e5ec8800a4438000b7
:10513000b543800002002000c32024000400be000c
:1051400002f207000002be000400be00f2f00700f9
:105150000002be00f4ec880005ed88004f04be009c
:105160000080fa00000006000c00fa00889fbe00d4
:105170008a1f7800349b8000050020000400be00d8
:1051800024f107000002be0094ea8800a5ea880026
:10519000449b8000050020000400be001df10700b4
:1051a0000002be00b4ea8800c5ea8800549b800073
:1051b000050020000400be0016f107000002be003a
:1051c000d4ea8800e5ea8800649b8000050020009e
:1051d0000400be000ff107000002be00f4ea8800e0
:1051e00005eb880096ea8000a7ea800074ec800056
:1051f00085ec80000401be000600be00d3f107006c
:105200000002be0094ea8800a5ea8800b6ea8000a1
:10521000c7ea8000b4ec8000c5ec80000401be0049
:105220000600be00c9f107000002be00b4ea880013
:10523000c5ea8800d6ea8000e7ea800094ec8000a6
:10524000a5ec80000401be000600be00bff107000f
:105250000002be00d4ea8800e5ea8800f6ea800091
:1052600007eb8000d4ec8000e5ec80000401be0078
:105270000600be00b5f107000002be00f4ea880097
:1052800005eb8800a6418000b741800094ea8000c9
:10529000a5ea80000401be000600be008aef0700f8
:1052a0000002be0094ea8800a5ea8800e64180007a
:1052b000f7418000d4ea8000e5ea80000401be00e6
:1052c0000600be0080ef07000002be00d4ea88009e
:1052d000e5ea88002641800037418000b4ea80007a
:1052e000c5ea80000401be000600be0076ef07009c
:1052f0000002be00b4ea8800c5ea8800664180006a
:1053000077418000f4ea800005eb80000401be00d4
:105310000600be006cef07000002be00f4ea880041
:1053200005eb880094ea8000a5ea8000c448880064
:10533000d5488800d4ea8000e5ea8000e448880087
:10534000f5488800b4ea8000c5ea80000449880076
:1053500015498800f4ea800005eb800024498800a4
:105360003549880021e1a800449b80006123b800f2
:10537000349b80000500200004b8b90000007800cc
:1053800006a9b900820078000100400006037800f9
:10539000040278000432b800050040008002780062
:1053a0008449880095498800444980005449880010
:1053b000444980000500200046012000070020002d
:1053c000860f5200878f5a00d9013e000460010009
:1053d000140037002a003700b7003700ca00370032
:1053e00070013700760137007c01370082013700f9
:1053f000880137008e01370094013700a60137007d
:10540000ac013700b2013700c9013700c8013700cd
:10541000c7013700c6013700c5013700c401370096
:10542000bc0137006549800014c0b300260220008b
:10543000868f520001003e000042eb008502e8002a
:1054400065498800e04f5200c2013200821807000f
:10545000f462a9001209a900f416070000e2240072
:1054600001002000891807001209a800140020007c
:10547000444988000002eb0064498800be013700ff
:10548000ec42a8000002eb007449880010c0b30091
:10549000940407006549800014c0b300e38f5200f4
:1054a00001003e000042eb008502e80065498800eb
:1054b000e04f5200a9013200349b8000050020001b
:1054c00024079800350798003e0290006622b90034
:1054d000040378002e0290006022b90004027800d4
:1054e00004034300ae02900064002000042ab800c8
:1054f0000503430086027800a2002000030020007c
:105500000400be008fef07000002be0044079800b1
:10551000550798003e0290006b22b9000403780002
:105520002e0290006022b9000402780004034300b8
:10553000ae029000b4002000042ab8000503430026
:1055400086027800a2002000030020000400be00b4
:105550007cef07000002be00048fbe00549b800059
:1055600005002000be0f5200ae8f5a0004003d001f
:10557000549b80000402e90005002000048fbe0057
:105580002e029000444a88000002eb006449880023
:105590006022b800e4498800f54988000002eb0069
:1055a000d44988002400200044498800549b80008e
:1055b00005002000be0f5200ae8f5a0034003400a8
:1055c0004e029000de029000e00f5200e08f5a0081
:1055d0002f0034009e029000c4bc2b0004aab90026
:1055e000040378001e0278006022b90004027800eb
:1055f000040343009e027800c4bc2b00042ab800b8
:105600000503430086027800569b800007002000b7
:105610000601be000400be004aef07000002be0003
:1056200004027800c5bc2b0004825200244a880082
:10563000de029000c4bc2b0004aab9000403780069
:105640004e0290006022b900040278000403430077
:10565000ce029000c4bc2b00042ab800050343000e
:1056600086027800569b8000070020000601be00dd
:105670000400be0033ef07000002be000402780001
:10568000c5bc2b0004825200344a88000400370055
:105690000002eb00244a8800c4bc2b00344a880076
:1056a000244a8000044a88000042eb00044078004d
:1056b00042e9b700300137000040eb00320107003b
:1056c000044a800074498800249420001442780021
:1056d000e14f520023013a00449b8000544a880065
:1056e00034002000444988000002eb00644988002f
:1056f000d449800074498800ec42a90010c0b3006e
:10570000f80307001c013700d6ea8000e7ea8000b2
:10571000f4eb800005ec800018c0b3000401be006b
:105720000600be007aef070000027800e00f52008a
:1057300001003c000044eb00e04f54000400320044
:1057400034c0b3000440780024feb7005a0037008c
:1057500044e2210014427800e34f520015003a0061
:10576000d6ea8000e7ea800034ec800045ec800057
:1057700018c0b3000401be000600be0062ef0700bf
:1057800000027800e00f5200010035000044eb00f9
:10579000e04f54004800320014c0b30004407800c9
:1057a00024feb7000002eb0024ed8800ec42a900c3
:1057b0004100370044e2210014427800e14f5200da
:1057c0001f003a0024ed80000402e80024ed880068
:1057d00024ed8000050020000400be008def0700ce
:1057e0000004be0064438000754380000200200076
:1057f000c32024000400be0054f007000002be00d5
:105800001ac0b3000401be000800be0040ef07004c
:1058100000027800e00f520001003d000045eb005f
:10582000e04f5500240032000002eb0024ed880018
:1058300024c0b3000440780024feb7001e003700e7
:1058400024ed80000402e80024ed880024ed8000af
:10585000050020000400be006eef07000004be003b
:10586000844380009543800002002000c320240070
:105870000400be0035f007000002be001ac0b300ed
:105880000401be000800be0021ef070000027800fe
:10589000e00f520001003d000045eb00e04f5500d5
:1058a000050032000002eb0024ed880014c0b300b4
:1058b0000440780024feb70044e22100144278003e
:1058c00004407800f0000700624980006113b800ce
:1058d000b44880006120b800f4ec800005ed800041
:1058e0000002420081824a0010c0b300840f5300be
:1058f000858f5b0001003d000040eb000202e800e4
:1059000064498800e04f5000050032001400200078
:10591000444988000002eb00644988009600370083
:10592000b4ea8000c5ea800018c0b300d2cc2c00d5
:10593000c3dc23000400be00f3ee07000002780081
:10594000e00f5200010035000044eb00e04f54002e
:105950001100320035ed800014c0b300f60a2000bb
:10596000868f520001003e000042eb008502e800f5
:1059700035ed8800e04f52007c003200140020001a
:10598000444988000002eb00644988000002eb00f3
:1059900034ed8800780037000002eb0034ed880019
:1059a000750037002c170700f462a9001209a9003e
:1059b000ecc2a80040002000170207006e0037006c
:1059c00025170700f462a9001209a900ecc2a8007b
:1059d0005000200010020700670037001e17070064
:1059e000f462a9001209a900ecc2a800600020001e
:1059f000090207006000370017170700f462a900ca
:105a00001209a900ecc2a8007000200002020700e1
:105a10005900370010170700f462a9001209a90005
:105a2000ecc2a80080002000fb01070052003700f4
:105a300009170700f462a9001209a900ecc2a80026
:105a400090002000f40107004b003700ecc2a800d2
:105a5000a0002000f00107006549800014c0b300d9
:105a6000e60a2000868f520001003e000042eb0053
:105a70008502e80065498800e04f52003d00320091
:105a80000002eb00644988000002eb0044498800f2
:105a90008c18070038003700ef160700f462a900e1
:105aa0001209a900ecc2a800b0002000da0107002a
:105ab00031003700e8160700f462a9001209a900b6
:105ac000ecc2a800c0002000d30107002a00370064
:105ad000844a8000744988007549800084262b0020
:105ae000848f52000200360084262b0074498800ff
:105af0007549800024962000848f520002003e00e9
:105b000034962000744988000040eb00f50207003d
:105b100019003700d0160700f462a9001209a90085
:105b2000ecc2a80040012000bb01070012003700b2
:105b3000c9160700f462a9001209a900ecc2a80066
:105b40004449800004007800b30107000000000011
:105b500009003700000000000700370000000000c7
:105b600005003700000000000300370000000000bf
:105b700001003700000000004f0578004f04be0010
:105b80000080fa00000006000200fa00004f7800d2
:105b90008649800097498000e4498000f5498000eb
:105ba000840f5300858f5b00060034008449800019
:105bb00095498000e4498800f5498800044a80003e
:105bc000d4498800054a8000344a8000848f5200fe
:105bd00006003900344a8000044a880014c0b3002b
:105be0000440780042e9b700030037000042eb00b0
:105bf0000440780042e9b70010c0b300b9020700c2
:105c0000044a80007417b000044a88000080fa003b
:105c1000000006000200fa000002eb00040f78000a
:105c2000349b800005002000c663290006abb90044
:105c3000060378006020b900800378000703430062
:105c400084027800c4632900042ab80005034300d5
:105c500086027800569b8000070020000601be00e7
:105c60000400be006def07000002be0004027800d1
:105c7000c5bc2b00048f52001e027800040078007f
:105c80000080fa00000006000200fa00881f780079
:105c9000004f780014eb800025eb800034eb880087
:105ca00045eb880096ea8000a7ea8000b4ea80000d
:105cb000c5ea80000401be000600be0023ef070015
:105cc0000002be0014eb880025eb8800b4ea8000d7
:105cd000c5ea800018c0b3000200200003042400bd
:105ce0000400be0008ee070000027800e00f52003a
:105cf000010035000044eb00e04f54000500320085
:105d00001e427800e34f52000200320014c0b3007c
:105d1000044f78009e4278000582fb00cfa2de008f
:105d20003600200007002000860f5200878f5a009f
:105d300018013e000460010003003700070037002f
:105d400070003700c5003700d449800074498800ce
:105d50000040eb00630207001201370016eb8000e1
:105d600027eb800034eb800045eb800018c0b300c7
:105d70000401be000600be00e5ed07000002780049
:105d8000e00f520001003c000044eb00e04f5400e3
:105d90000b003200644a8000e10f520004003a0018
:105da00074498000e402b000744988003e00370066
:105db00074498000e402b100744988003a00370059
:105dc00096ea8000a7ea800054eb800065eb800033
:105dd0000401be000600be00baec07000002be00cf
:105de0000400be00cced07000002be0004027800f3
:105df00004f0a7000402ea00cfa2de000400be0007
:105e000001ee07000002be0018c0b300020020002f
:105e100003e823000400be00bbed07000002780089
:105e2000e00f5200010035000044eb00e04f540049
:105e30000b003200644a8000e10f520004003a0077
:105e400074498000e402b0007449880016003700ed
:105e500074498000e402b1007449880012003700e0
:105e600094ea8000a5ea800054eb880065eb880086
:105e7000644a8000e10f520006003a007449800035
:105e8000e402b100744988000002eb00644a880013
:105e90000500370074498000e402b00074498800ae
:105ea00014002000644a88007549800084262b0075
:105eb000848f52000400360084262b007449880029
:105ec0000002eb00644a8800754980002496200097
:105ed000848f520004003e003496200074498800ec
:105ee00014002000644a88000040eb00fd01070018
:105ef0008449800095498000a4498800b5498800fc
:105f0000a800370096ea8000a7ea8000b4eb800082
:105f1000c5eb80000401be000600be0069ec07006e
:105f20000002be00b4eb8800c5eb8800b6ea800032
:105f3000c7ea8000d4eb8000e5eb80000401be00de
:105f40000600be005fec07000002be00d4eb880034
:105f5000e5eb880076eb800087eb800094eb800017
:105f6000a5eb80000401be000600be0056ec070051
:105f70000002be000200200003e023000400be0077
:105f800061ed0700b6ea8000c7ea800094ea80006d
:105f9000a5ea80000401be000600be00a7ec0700d1
:105fa0000002be0094eb8800a5eb8800d6eb8000d1
:105fb000e7eb8000b4eb8000c5eb80000401be007d
:105fc0000600be009dec07000002be0074eb8800d6
:105fd00085eb880094eb8000a5eb80000403be00f5
:105fe00007f0a20074eb800085eb800018c0b300be
:105ff0000401be000600be0043ed07000002780069
:10600000e00f5200010035000044eb00e04f540067
:106010000400320074498000e402b1007449880031
:106020000300370074498000e402b000744988001e
:106030000040eb00ab01070094ea8000a5ea800075
:10604000b4eb8800c5eb8800b4ea8000c5ea8000a4
:10605000d4eb8800e5eb880052003700641780001d
:106060004622de006142620004c2ea006142620030
:106070000482fb00610262004222dd00661780009c
:10608000b5ff2f0085026300048272006417880048
:10609000d6ea8000e7ea8000f4eb800005ec80009f
:1060a00018c0b3000401be000600be0018ed0700d2
:1060b00000027800e00f520001003c000044eb00b9
:1060c000e04f54000300320074498000e402b10044
:1060d00074498800d6ea8000e7ea800014ec80006a
:1060e00025ec800018c0b3000401be000600be000d
:1060f00005ed070000027800e00f520001003500b6
:106100000044eb00e04f540003003200744980006b
:10611000e402b00074498800d6ea8000e7ea800013
:1061200054ec800065ec800018c0b3000401be0090
:106130000600be00f6ec070000027800e00f5200f7
:1061400001003c000044eb00e04f5400020032002c
:1061500034962000744988007549800084262b00fd
:10616000848f52000200360084262b007449880078
:106170007549800024962000848f520002003e0062
:10618000349620007449880010c0b3005501070000
:106190000400370051c0b3000000eb00e01407001a
:1061a000000000004f0478000080fa0000000600a4
:1061b0000200fa00000f780027150700f462a9001a
:1061c0001209a90014002000744a88001e027800f9
:1061d000444988000080fa00000006000200fa002e
:1061e000000f7800a4002000444988000002eb0062
:1061f000644988000002eb00744a88000080fa00bd
:10620000000006000000fa00640620000400780088
:106210000080fa00000006000200fa00000f78007b
:10622000ec42a9001e0278006123b900c4ff2f00d0
:10623000f5ff2f000602420087824a000601200077
:1062400007002000860f5200878f5a00f3003e009f
:1062500004600100100037003100370053003700a0
:106260007500370097003700b9003700db003700b2
:10627000de003700e5003700e8003700e7003700b0
:10628000e6003700e5003700e4003700e3003700a0
:10629000e2003700d900370064498000e00f520067
:1062a00001003a00ec62a80065498000a4002000cb
:1062b000110009008482d80001027800e00f52002a
:1062c00003003a00641780000430a20064178800bd
:1062d00064498000ea0f520001003600ec62a90018
:1062e0006549800014c0b30056092000868f520013
:1062f00001003e000042eb008502e800654988008d
:10630000e04f5200e80032000002eb0064498800d0
:10631000a40020004449880044130700ef00370020
:1063200064498000e00f520001003a00ec62a800ce
:1063300065498000a4002000110009008482d80073
:1063400001027800e00f520003003a006417800059
:106350000430a20064178800654980008402200090
:10636000848f520001003600ec62a900654980006c
:1063700014c0b30056092000868f520001003e0071
:106380000042eb008502e80065498800e04f5200ba
:10639000c70032000002eb0064498800a40020001e
:1063a0004449880021130700cc003700644980006d
:1063b000e00f520001003a00ec62a800654980003d
:1063c000a4002000110009008482d8000102780096
:1063d000e00f520003003a00641780000430a2006e
:1063e0006417880065498000c4032000848f520030
:1063f00001003600ec62a9006549800014c0b300ba
:1064000056092000868f520001003e000042eb003a
:106410008502e80065498800e04f5200a60032007e
:106420000002eb0064498800a40020004449880071
:10643000fe120700a900370064498000e00f5200f7
:1064400001003a00ec62a80065498000a400200029
:10645000110009008482d80001027800e00f520088
:1064600003003a00641780000430a200641788001b
:106470006549800004052000848f52000100360029
:10648000ec62a9006549800014c0b30056092000e1
:10649000868f520001003e000042eb008502e800ba
:1064a00065498800e04f5200850032000002eb0091
:1064b00064498800a400200044498800db120700da
:1064c0008600370064498000e00f520001003a0066
:1064d000ec62a80065498000a400200011000900ba
:1064e0008482d80001027800e00f520003003a00d5
:1064f000641780000430a20064178800654980009a
:1065000044062000848f520001003600ec62a9008e
:106510006549800014c0b30056092000868f5200e0
:1065200001003e000042eb008502e800654988005a
:10653000e04f5200640032000002eb006449880022
:10654000a400200044498800b81207006300370007
:1065500064498000e00f520001003a00ec62a8009c
:1065600065498000a4002000110009008482d80041
:1065700001027800e00f520003003a006417800027
:106580000430a20064178800654980008407200059
:10659000848f520001003600ec62a900654980003a
:1065a00014c0b30056092000868f520001003e003f
:1065b0000042eb008502e80065498800e04f520088
:1065c000430032000002eb0064498800a400200070
:1065d0004449880095120700400037006417800086
:1065e0000430a200641788003c0037006417800064
:1065f0000430a20064178800380037006417800058
:106600000430a2006417880034003700641780004b
:106610000420a2006417880030003700644980001d
:10662000e00f520001003a00ec62a80065498000ca
:10663000a4002000110009008482d8000102780023
:10664000e00f520003003a00641780000430a200fb
:106650006417880065498000c4082000848f5200b8
:1066600001003600ec62a9006549800014c0b30047
:1066700056092000868f520001003e000042eb00c8
:106680008502e80065498800e04f520012003200a0
:106690000002eb0064498800a400200044498800ff
:1066a000621207000d003700000000000b003700e9
:1066b000000000000900370000000000070037005c
:1066c0000000000005003700000000000300370054
:1066d0000000000001003700000000000080fa0008
:1066e000000006000e00fa00889fbe00404f980090
:1066f00074498000050020000400be00c5eb0700bf
:106700000002be00048fbe0004f1800015f180007d
:106710000401be001e00be008cec07000002be009b
:10672000048fbe00d8ea8000e9ea8000d4ea800045
:10673000e5ea80001e01be000400be0083ec0700f5
:106740000002be000401be000800be005dea0700b2
:106750000002be00240798003507980094ea8000e4
:10676000a5ea80004407980055079800e64380009a
:10677000f7438000b4ea8000c5ea800018c0b30087
:106780000401be000600be005feb070000027800b7
:10679000e00f5200010035000044eb00e04f5400d0
:1067a0000300320014c0b30004407800a2fdb7001b
:1067b0000644800017448000b4ea8000c5ea8000e7
:1067c00018c0b3000401be000600be0050eb070075
:1067d00000027800e00f520001003c000044eb0092
:1067e000e04f5400030032000042eb000440780008
:1067f000a2fdb7004e4a9000e04f52000300320065
:106800000042eb0004407800a2fdb70024da21002a
:10681000144278008484fb00180020004e01900090
:10682000de0190002e009000be00900036eb0700c5
:1068300000027800e00f5200010034000004eb0079
:1068400008826400e00f52000600320074498000a4
:10685000a1c0b300040078003113070014c0b300d6
:10686000050037007449800061c0b300040078005f
:106870002b1307000042eb00044078004f04be00d9
:106880000080fa00000006000600fa0014028000f2
:106890004522de00674262000482fb00040f78009c
:1068a0009402800014079800ff3ffc00140280004f
:1068b0000450a0000460a0000470a000140288002e
:1068c0001e02900094028800000088001b1507003b
:1068d0009402800024079800ff3ffc001e0278000d
:1068e00004427800674262000482fb006702620093
:1068f0004522dd0016028000f5f12f0085026300bd
:1069000004827200140288002e0290009402880013
:10691000000088000080fa00000006000c00fa0069
:10692000004f9800114f9800224f98002403200038
:10693000144278000482fb0014079800060021002e
:10694000070020000e4a90008482fb0004c0200053
:1069500004aab900040278000500200006034200e2
:1069600087834a001e4a90000482fb004a22dd0011
:10697000050020000602420087824a00402ade000d
:1069800005002000044278000440780032e0b7009f
:106990000400210005002000040378001e4a900036
:1069a0008483fb000e4a90000482fb006322b9003e
:1069b00004027800048243004a22dd0004024300fe
:1069c000240798002e02900004007800d7140700d6
:1069d00000027800644798002e4a90000482fb0071
:1069e000f30f52000a003200f40f52000e00320082
:1069f000f20f520012003a006e4290000482fb0037
:106a00006402620042a2de00044f78000f003700eb
:106a10006e4290000482fb006802620043a2de0026
:106a2000044f7800090037006e4290000482fb009a
:106a30007002620044a2de00044f780003003700b9
:106a40000042eb00044f7800000000001e0290009e
:106a5000044278000440780032e0b7009e4278009b
:106a60000582fb00040078000080fa0000000600a8
:106a70000600fa0040479800514798002403200080
:106a8000144278000482fb00040f78000600210005
:106a9000070020004e4290008482fb0004c02000ca
:106aa00004aab90004027800050020000603420091
:106ab00087834a005e4290000482fb004a22dd0088
:106ac000050020000602420087824a00402ade00bc
:106ad00005002000044278000440780032e0b7004e
:106ae00024042400043b8800040021000500200049
:106af000040378005e4290008483fb004e429000c5
:106b00000482fb006322b90004027800048243007f
:106b10004a22dd0004024300140798009e02900000
:106b20001e0290008500780004007800941407008d
:106b300055ff07001e0278000442780004407800e8
:106b400032e0b7000080fa00000006000c00fa00f6
:106b5000204f98000002eb00040f7800240320006f
:106b6000144278000482fb00340798000002eb0016
:106b700014079800030037001e0290000402e8008a
:106b8000140798001e029000e20f520009003c001a
:106b90001e0290000442780032c1b30084407800a5
:106ba0002e4890005dff070000027800e10f5200c0
:106bb000f1ff320006002100070020002e4a90005d
:106bc0008482fb0004c0200004aab90004027800fb
:106bd000050020000603420087834a001e02900041
:106be0004a22dd00050020000602420087824a009a
:106bf000402ade00050020000442780004407800ae
:106c000032e0b700040021000500200004037800f2
:106c10002e4a90000482fb006322b90084027800af
:106c20001e029000048242004a22dd00040243005a
:106c3000240798001e8fe8002e0290000482e800ce
:106c4000240798002e0290000400780037140700f3
:106c500000027800044f9800f43f20009e02780064
:106c6000848f520003003c000e4a9000e14f420026
:106c7000f0ff3a00044020009e027800848f52000a
:106c800002003a000002eb00040f78003e02900080
:106c9000044278000440780032e0b7001e02780019
:106ca000040078000080fa00000006001400fa00da
:106cb000881f780020579800240320001442780091
:106cc0000482fb00640798000002eb00040f7800c8
:106cd000010037001e0fe8001e027800e20f52008c
:106ce00009003c001e0278000442780032c1b30063
:106cf000844078002e50900008ff070000027800c2
:106d0000e10f5200f3ff32001e027800e30f520041
:106d100007003a006e0290000442780004407800b8
:106d200032e0b7002c7ea800340020008601370036
:106d30001e02e800140798001e029000e30f5200a4
:106d400015003a000002eb0014079800130037000a
:106d50001e0290000402e800140798001e02900032
:106d6000e30f520002003a000002eb001407980003
:106d70001e0290009e0f520008003a006e02900022
:106d8000044278000440780032e0b7002c3ea800ae
:106d9000140020006c013700000000001e0290006b
:106da0000442780042c1b300844078002e50900025
:106db000dafe070000027800e00f5200e4ff320024
:106dc00006002100070020002e5290008482fb0064
:106dd00004c0200004aab9000402780005002000c5
:106de0000603420087834a001e0290004a22dd000b
:106df000050020000602420087824a00402ade0089
:106e000005002000044278000440780032e0b7001a
:106e10000400210005002000040378002e52900099
:106e20000482fb006322b900840278001e029000f5
:106e3000048242004a22dd00040243002407980035
:106e40002e50900041ff070000027800e00f520032
:106e5000010032002c5ea800c4e221001442780038
:106e6000644f98002c1ea9000002eb003407980024
:106e700014002400043b8800ae0090000080eb006a
:106e8000bf130700ae009000f00f2000b8130700fa
:106e90002e0290000482e800240798000042eb00d4
:106ea000044f98003e0290000402e8003407980066
:106eb000380037002e5290008482fb00f40f20002f
:106ec00004aab900840278000e4a90000482fb00f4
:106ed0000482420004007800eb0107000002780001
:106ee0005407980064f1800061026200e00f5200d4
:106ef000020032002c1ea9000f0037005e02900035
:106f0000ae009000040078009d1307000e4a900028
:106f10000482fb00ae009000040078009413070088
:106f20002e0290000482e800240798003e029000a0
:106f30000402e800340798000e4a90000442e8007a
:106f4000044f98000c003700ae0090000080eb006a
:106f50008b130700ae009000f00f20008413070091
:106f60002e0290000482e800240798003e02900060
:106f70000402e800340798000e4a9000e14f4200f6
:106f800004003a00be029000f4032000848f5200f7
:106f9000edff34000e4a9000e14f42000400320041
:106fa000be029000f4032000848f5200c1ff340021
:106fb00035fe07000002eb00340798000e4a9000ef
:106fc000e14f4200f3ff3a006e4890002cfeb700fc
:106fd00006002100070020002e5290008482fb0052
:106fe00004c0200004aab9000402780005002000b3
:106ff0000603420087834a001e0290004a22dd00f9
:10700000050020000602420087824a00402ade0076
:1070100005002000044278000440780032e0b70008
:107020000400210005002000040378002e52900087
:107030000482fb006322b900840278001e029000e3
:10704000048242004a22dd00040243000482e80078
:10705000240798002e029000ae0290008502e800fe
:10706000250798000400780030130700000278001c
:10707000044f98002e029000ae0290008502e800b6
:1070800025079800040078002a1307000002780002
:1070900054079800250037002e5290008482fb0090
:1070a000f40f200004aab900840278000e4a900070
:1070b0000482fb0004824200040078007201070091
:1070c00000027800de029000850f520007003200b7
:1070d0006e029000044278000440780032e0b7006d
:1070e0002cfea80074002000970037002e029000ac
:1070f000ae0290008502e8002507980004007800a1
:107100000a13070000027800044f98002e02900036
:10711000ae0290008502e800250798000400780080
:107120000413070000027800540798000e4a9000ec
:10713000e14f4200d8ff3a00040021000500200082
:10714000040378002e5290000482fb006322b900f1
:10715000840278001e027800048242004a22dd0088
:1071600004024300040f98000400210005002000e1
:10717000040378002e5290000482fb006322b900c1
:10718000840278001e029000048242004a22dd0040
:107190000402430024079800060021000700200095
:1071a0002e5290008482fb0004c0200004aab90083
:1071b00004027800050020000603420087834a008d
:1071c0001e0278004a22dd0005002000060242006f
:1071d00087824a00402ade00050020000442780031
:1071e0000440780032e0b7000e089000d11207008a
:1071f00000027800540798000e089000cb12070098
:1072000000027800044f98001e029000e00f520028
:1072100003003a005e0290000402e8005407980060
:107220005e029000e30f5200050036002c3ea800dd
:107230008e4a9000f4ceb30004c26200044f98005e
:1072400006002100070020002e5290008482fb00df
:1072500004c0200004aab900040278000500200040
:107260000603420087834a001e0290004a22dd0086
:10727000050020000602420087824a00402ade0004
:1072800005002000044278000440780032e0b70096
:107290000e4a90000482fb00ae00900004007800cb
:1072a000b31207005e029000ae0090000400780068
:1072b000b312070034002400043b880072fd07006d
:1072c0000e4a90000484fb002e00900097120700e5
:1072d00000027800840f540007003a002e0090004e
:1072e0009412070000027800840278005e02900089
:1072f000848f5200070032006e0290000442780032
:107300000440780032e0b7002cfea8007400200092
:107310000d0037001e027800044278008440780097
:107320002e509000d2fd07006e02900004427800bb
:107330000440780032e0b70064f180000402d1001c
:10734000614262000482fb00040078004f04780070
:107350000080fa00000006000c00fa002403200060
:10736000144278000482fb003407980004002100d6
:1073700005002000402ade000500200004427800bd
:107380000440780032e0b7000042eb004447980028
:10739000b60037000042eb00044f78000042eb00db
:1073a000144798000002eb00440798000002eb002d
:1073b00014079800030037001e0290000402e80042
:1073c000140798001e029000e20f520009003e00d0
:1073d0001e0290000442780042c1b300844078004d
:1073e0004e4090004dfd070000027800e00f520073
:1073f000f1ff32001e029000e30f520007003a0036
:107400003e029000044278000440780032e0b70069
:107410002c3ea80014c0b300980037000002eb0017
:10742000140798000d0037001e02900004427800f7
:1074300032c1b300844078004e40900037fd070011
:1074400000027800e00f520001003a001e4fe800f1
:107450001e0290000402e800140798001e0290002b
:10746000e20f5200f0ff36001e427800e04f52005b
:107470002c003a008040eb004e4090007cfd07005d
:1074800006002100070020004e4290008482fb008d
:1074900004c0200004aab9000402780005002000fe
:1074a0000602420087824a00402ade0005002000d2
:1074b000044278000440780032e0b7000400210064
:1074c00005002000040378004e4290008482fb00f7
:1074d00004c0200004aab90004027800040243009a
:1074e0005407980034002400043b88005e0290009a
:1074f000840078000000eb00211207005e0290007b
:1075000084007800300f200019120700defc07000d
:107510003e029000044278000440780032e0b70058
:107520004f0037001e427800e14f520005003a003c
:107530003e029000044278000440780032e0b70038
:10754000470037001e427800e24f52003d003a00eb
:1075500032c1b30021c0b3004e409000effc0700e1
:1075600000027800e00f52000c003a0032c1b30074
:107570008040eb004e409000e8fc070000027800dd
:10758000e00f520005003a00240020001407980084
:107590000042eb00144798001b0037000002eb008c
:1075a00014079800030037001e0290000402e80050
:1075b000140798001e0290000442780032c1b30004
:1075c000844078004e409000d4fc07000002780010
:1075d000e10f520003003a001e029000e20f520039
:1075e000f1ff36001e029000044278000442e800d9
:1075f000144798001e429000e34f520002003a00e8
:107600000042eb00144798009e4090004e409000ce
:1076100017fd07004e4090004cfd07000002780067
:10762000e00f520002003a004e4090009ffd07001c
:107630003e029000044278000440780032e0b70037
:10764000070037003e0290000442780004407800b2
:1076500032e0b7002cdea80064c0b300070037009a
:107660004e4290000442e800444798004e42900089
:10767000e14f520047ff36000042eb000440780023
:107680000080fa00000006000e00fa006007980073
:10769000ee029000d41f2000848f520003003600b9
:1076a0002cbea8000082eb0075003700ee029000af
:1076b000f40f2000110009008482d8000002780035
:1076c0006447980024032000144278000482fb00e1
:1076d000440798000002eb00040f78000100370017
:1076e0001e0fe8001e027800e20f520009003e0063
:1076f0001e0278000442780032c1b3008440780052
:107700006e40900085fc070000027800e10f5200f7
:10771000f3ff32001e027800e30f520007003a0028
:107720004e029000044278000440780032e0b70036
:107730002cdea8000082eb0051003700060021007b
:10774000070020006e4290008482fb0004c02000ed
:1077500004aab900040278000500200006034200d4
:1077600087834a001e0278004a22dd0005002000bf
:107770000602420087824a00402ade0005002000ff
:10778000044278000440780032e0b7000400210091
:1077900005002000040378006e4290000482fb0084
:1077a0006322b900040278001e0242000402e800cd
:1077b0004a22dd00040243000482e9001407980015
:1077c00004202000240798001e0290000400780086
:1077d0005611070000027800540798001e0290001e
:1077e0000482e900140798002e0290000402e900c8
:1077f000240798002e029000e00f5200090032008a
:10780000ee029000f40f2000110009008482d800dd
:1078100001027800840278005e029000848f52009a
:10782000e9ff3a002e029000e00f520007003a00f4
:107830002c1ea8004e0290000442780004407800fc
:1078400032e0b7000082eb000d0037001e0290000e
:107850000482e800140798001e02900004007800db
:107860003411070000027800540798004e0290007f
:10787000044278000440780032e0b7005e029000d5
:10788000040078000080fa00000006001200fa00f0
:1078900070079800010f98008e0a9000d41f2000f6
:1078a000848f5200030036002cbea80054c0b300e1
:1078b000cb0037008e0a9000f40f20001100090061
:1078c0008482d80000027800140798002403200066
:1078d000144278000482fb0024079800340024003e
:1078e000043b88000002eb00040f78000100370021
:1078f0001e0fe8001e027800e20f52000b003c0051
:107900001e027800844278001e0290000442780033
:1079100032c1b3008540780004407800fffb0700c7
:1079200000027800e10f5200f1ff32001e027800e1
:10793000e30f520007003a002e0290000442780044
:107940000440780032e0b7002cdea80064c0b30029
:10795000a300370006002100070020009e029000cf
:1079600004c0200004aab900040278000500200029
:107970000603420087834a001e0278004a22dd0087
:10798000050020000602420087824a00402ade00ed
:1079900005002000044278000440780032e0b7007f
:1079a0000400210005002000040378001e0290005e
:1079b0006322b900840278001e027800048242002b
:1079c0004a22dd000402430034079800c1e221008e
:1079d00091407800014f98000e0890002aff0700a0
:1079e00000027800fe029000850f52000c003a0061
:1079f00064f1800061026200e00f520008003a006a
:107a00002e029000044278000440780032e0b70073
:107a10000e4890002cfeb7000042eb0070003700cb
:107a20000e4890002cfeb7001e0290000442780021
:107a30000440780045fc07000002780054079800d5
:107a40005e029000e00f520007003a002e02900004
:107a5000044278000440780032e0b7002c9ea80071
:107a600044c0b3005e003700be0290005e0290008a
:107a700004824200340798007e029000be0090000d
:107a800004007800be1007008e0a9000f40f20005a
:107a9000110009008482d80001027800be00900025
:107aa00004007800b210070077fb07000000000018
:107ab000000000003e0090009e10070000027800c9
:107ac00004427800444f98004e4a90008482fb00a4
:107ad0007e039000f40f200004026300848f5200a4
:107ae000070032002e029000044278000440780023
:107af00032e0b7002cfea80074c0b3003800370095
:107b00003e009000891007000002780004427800cf
:107b1000444f98004e4a90008482fb000e0b900068
:107b2000f40f2000110009000483d800010278003e
:107b3000848f5200070032002e0290000442780029
:107b40000440780032e0b7002cfea80074c0b300f7
:107b5000230037003e0290000402e800340798003a
:107b60003e00900073100700000278004822de00fb
:107b700004427800444f98004e4a90008482fb00f3
:107b80007e0290004822de00848f520007003200ff
:107b90002e029000044278000440780032e0b700e2
:107ba0002cfea80074c0b3000d003700de02900068
:107bb000e43f2000848f520004003a001e0290002f
:107bc000044278000440780038fc07002e02900040
:107bd000044278000440780032e0b7000042eb0035
:107be000044078000080fa00000006001c00fa0043
:107bf000300f9800410f9800520f98008400200029
:107c00001407980021e1a800de0a90001e029000ef
:107c1000848f520020003c000042eb007447980023
:107c200044c0b3006447980014c0b30054479800a0
:107c30003e0a9000cfa2de00440798005507980046
:107c40000002eb00040f7800080037001e027800e5
:107c5000ce0a90000482420014427800ec024700f1
:107c60009e824200844a78001e0fe8005e0a90005f
:107c70009e027800848f5200f4ff35005e0a900067
:107c800004427800445798006402470004007800da
:107c90003601070001003700000000000080fa00f4
:107ca000000006000800fa0021e1a800a4178000e7
:107cb0004922de006142620004c2ea0061426200c1
:107cc0000482fb00610262004922dd00a6178000e9
:107cd000f5df2f008502630004827200a41788007c
:107ce00060c1210075020700a41780004822de0051
:107cf0006142620004c2ea00614262000482fb0049
:107d0000610262004822dd00a6178000f5ef2f0017
:107d10008502630004827200a417880074c12100e8
:107d200014427800e24f520022003a00a41780006b
:107d30004722de006142620004c2ea006142620042
:107d40000482fb00610262004722dd00a61780006a
:107d5000f5f72f008502630004827200a4178800e3
:107d6000d6e08000e7e08000a44880000500200005
:107d7000840f5300858f5b000e003a00a41780002b
:107d80004622de006142620004c2ea0061426200f3
:107d90000482fb00610262004622dd00a61780001b
:107da000f5fb2f008502630004827200a41788008f
:107db0001c0f0700d6e08000e7e08000a4488000a8
:107dc0007002420005002000840f5300858f5b0085
:107dd0001b003a00e4c12100144278000482fb0039
:107de00061026200e00f520003003a00c40020006c
:107df000444988000700370044498000ec0f5200d6
:107e000004003a000002eb0044498800ec42a9005b
:107e1000ec62a900e4c12100144278000482fb0056
:107e200062026200e00f5200030032000000eb002b
:107e3000ae0f07000200370010002000ab0f070054
:107e4000d6e08000e7e08000a44880000402b00093
:107e500005002000840f5300858f5b000b003a0063
:107e600054c22100144278000482fb00040f780001
:107e7000e40720009e027800848f520003003c003b
:107e80001e02780004007800c60e0700d6e08000cd
:107e9000e7e08000a44880000403b0000500200053
:107ea000840f5300858f5b003e003a0054c22100ce
:107eb000144278000482fb00140798009e02900090
:107ec000e4072000848f520022003c0025c22100dc
:107ed00095427800d4c2b30084cf52001d003a000e
:107ee00035c2210095427800e4c4b30084cf52002b
:107ef00018003a0045c221009542780054c4b300ee
:107f000084cf520013003a00e4c1210014427800eb
:107f100044479800f4c12100144278005447980067
:107f200004c22100144278006447980014c2210062
:107f300014427800744798002e029000be02900010
:107f40001e0390000401be0006007800980407009c
:107f5000140037009e029000e40f2000848f52002e
:107f600010003a0025c2210095427800d4c2b30027
:107f700084cf52000b003a0035c2210095427800b0
:107f8000e4c4b30084cf520006003a0045c2210089
:107f90009542780054c4b30084cf520001003a00e7
:107fa0000000fe00d6e08000e7e08000a4488000ea
:107fb0000407b00005002000840f5300858f5b008c
:107fc00025003a00464380005743800014002000fb
:107fd00005002000840f5300858f5b001e003a00cf
:107fe00025c2210095427800d4c2b30084cf52004c
:107ff00019003a0035c2210095427800e4c4b3006c
:1080000084cf520014003a0045c221009542780006
:1080100054c4b30084cf52000f003a00d4002000b3
:1080200044498800e4c12100144278000482fb0026
:10803000844a8800844a80004822dd00844a8800ff
:10804000854a8000f4c12100144278000482fb00bc
:1080500004824200844a88000080fa000000060082
:108060003600f800809fbe00829fbe00849fbe0045
:10807000869fbe003400f80000002000a0018800a8
:108080000000fa0021e1a800543080006202620082
:10809000e00f5200250032000431800062026200cd
:1080a000e00f52000800320054c0b30004407800d2
:1080b00016fcb70014c0b3000440780019fcb700e8
:1080c000f8fe0700170037000431800064026200e8
:1080d000e00f52000800320054c0b30004407800a2
:1080e00016fcb70024c0b3000440780019fcb700a8
:1080f000ecfe07000b0037000431800068026200cc
:10810000e00f52000700320054c0b3000440780072
:1081100016fcb70034c0b3000440780019fcb70067
:10812000e0fe07000a26a900060037005430800050
:1081300061026200e00f5200020032000a06a9004c
:108140002e0007008860a9000a46a9000080fa00f6
:108150003400f9004f03be004f02be004f01be00c5
:108160004f00be003600f900004006000200fa0091
:10817000000f780021e1a80084ea8000610262001b
:10818000e00f520018003a0056ea80007232b9003f
:108190008402780084c22100048242009e0278009a
:1081a00008000900351a78002401b1002501b1004a
:1081b0000602e80054ea880055ea800064ea80007c
:1081c000848f5200020036000002eb0054ea88005f
:1081d00084ea800064026200e00f520004003a006a
:1081e0000600070003003700000000000100370010
:1081f000000000000080fa00000006000000fa0005
:1082000021e1a80055ea800044ea8000848f5200f2
:1082100002003a00505da9001600370084ea800091
:1082200064026200e00f520001003a00505da800b5
:1082300046ea80007232b9008402780084c22100cc
:10824000048242008602e80045ea880004007800c3
:108250000a00070045ea800064ea8000848f52002b
:10826000030036000002eb0044ea880001003700fa
:10827000000000000080fa00000006000e00fa0076
:10828000600798006022b800048fbe006022b8002a
:1082900024079800350798006022b800440798002a
:1082a0005507980021e1a8006e029000244290003a
:1082b000e34f52004a003a006e02900024039000ff
:1082c000b403900004002000c5ff210006007800e0
:1082d0000703780084037800050278000700600037
:1082e0000402630005002000c022dd00040020001d
:1082f0000403be006102b8000403730085837300a9
:10830000403ade0005002000048fbe00340020004b
:10831000050020001e0f42005e974a006e0290008a
:1083200024039000b403900004fc2f0035002000cb
:1083300006007800070378008403780005027800bf
:10834000070060000402630005002000c022dd0079
:10835000040020000403be006102b800040373009f
:1083600085837300ca38dd004632de000482700067
:10837000c63ade0024079800350798006e02900088
:10838000b4029000240290004a2bdd00c623de00d8
:10839000870373004a23dd00f4ff2f00050020004f
:1083a000060078000703780084037800050278004f
:1083b000070060000402630005002000c022dd0009
:1083c000040020000403be006102b800040373002f
:1083d00085837300460798005707980017003700f9
:1083e0006e02900024039000b4039000f47f2000fc
:1083f0000500200006007800070378008403780059
:1084000005027800070060000402630005002000f8
:10841000c022dd00040020000403be006102b80099
:108420000403730085837300423add00ce32de0020
:10843000850272004232dd00048fbe006e029000a1
:1084400014429000e24f520027003a006e02900062
:1084500024429000e34f520009003a004e0390007e
:10846000de039000042020000500200004027300b9
:108470008582730044079800550798000100370073
:108480001e10a0006e029000344290000482fb0097
:108490009e0278004423dd0004b822000402430059
:1084a000050a78006e029000344290000482fb00be
:1084b000ae0290004423dd0024b8220004024300f1
:1084c000050a78006e029000344290000482fb009e
:1084d000ce0290004423dd0044b822000402430091
:1084e000050a7800710037006e0290000452900077
:1084f0000483fb0007002000f4002000050020009a
:1085000006007800070378008403780005027800ed
:10851000070060000402630005002000c022dd00a7
:10852000040020000403be006102b80004037300cd
:10853000858373004e029000de0290000402430027
:1085400085824b0044079800550798006e02900002
:10855000344290000482fb009e0278004423dd0038
:1085600004b8220004024300050a78006e0290005d
:10857000344290000482fb00ae0290004423dd00f0
:1085800024b8220004024300050a78006e0290001d
:10859000344290000482fb00ce0290004423dd00b0
:1085a00044b8220004024300050a78006e029000dd
:1085b000344290000483fb006e029000144a900045
:1085c0000482fb00c822dd006e029000044a900085
:1085d0000482fb0004824200840278004433dd0000
:1085e00064b8220004024300050a78006e0290007d
:1085f000344290000483fb006e029000344a9000e5
:108600000482fb00c822dd006e029000244a900024
:108610000482fb0004824200840278004433dd00bf
:1086200084b8220004024300050a78006e0290001c
:10863000344290000483fb006e029000544a900084
:108640000482fb00c822dd006e029000444a9000c4
:108650000482fb0004824200840278004433dd007f
:10866000a4b8220004024300050a78006e029000bc
:10867000344290000483fb006e029000744a900024
:108680000482fb00c822dd006e029000644a900064
:108690000482fb0004824200840278004433dd003f
:1086a000c4b8220004024300050a78003066a8001e
:1086b0000c06a8000080fa00000006000a00fa007c
:1086c000400798000002eb00140798000002eb003e
:1086d000040f78006022b80024079800350798003e
:1086e00021e1a8004e029000344290000482fb0079
:1086f000c422dd0004b82200048242001402780083
:1087000061026200140798001e029000e00f520000
:108710001a003a004e029000344290000482fb009e
:10872000c422dd0004b822000482420094027800d2
:10873000c4ff2100048262004222de000500200006
:108740004e0390002403980035039800ce02900059
:1087500044c0b300a44298004e02900034429000fe
:108760000482fb00c422dd0004b82200048242001f
:1087700014027800620f62006b0037004e02900016
:10878000344290000482fb00c422dd0004b82200c1
:1087900004824200140278006123b800c4ff210063
:1087a00005002000060078000703780084037800a5
:1087b0000502780007006000040263000500200045
:1087c000c022dd00040020000403be006102b800e6
:1087d0000403730085837300260798003707980009
:1087e0002e029000be029000c022dd000400200096
:1087f0004e03900024039800350398004e02900029
:10880000344290000482fb004422dd008482e800b0
:1088100004b8220004824200140278006123b800e8
:10882000f4ff200005002000060078000703780010
:1088300084037800050278000700600004026300ea
:1088400005002000c022dd00040020000403be005b
:108850006102b80004037300858373002607980043
:10886000370798004e02900024039000b403900054
:108870002e009000be009000460add00ca02de0015
:10888000850272004602dd000602420087824a002d
:108890004e03900024039800350398004e02900088
:1088a000344290000482fb004422dd00e4024200d6
:1088b00004b8220004824200140278004a22de003a
:1088c0000500200024079800350798004e0290000c
:1088d00024039000b40390002e029000be0290008a
:1088e0000602420087824a004e039000240398004b
:1088f00035039800ce02900034c0b300a442980023
:108900004e029000344290000482fb004422dd00bd
:10891000e402420004b8220004824200940278007b
:1089200004202000048f62001e027800e00f520035
:1089300004003200ce02900024c0b300944298009c
:108940006b003700ce02900014c0b3009442980030
:108950004e029000344290000482fb004422dd006d
:10896000e602420004b822000482420014027800a9
:1089700004427800ce029000844a98004e02900093
:10898000344290000482fb004422dd00e6024200f3
:1089900004b8220004824200140278004822de005b
:1089a00004427800ce029000944a98004e02900053
:1089b000344290000482fb004422dd00e8024200c1
:1089c00004b82200048242001402780004427800b5
:1089d000ce029000a44a98004e02900034429000cb
:1089e0000482fb004422dd00e802420004b82200b9
:1089f00004824200140278004822de00044278001b
:108a0000ce029000b44a98004e029000344290008a
:108a10000482fb004422dd00ea02420004b8220086
:108a2000048242001402780004427800ce029000d2
:108a3000c44a98004e029000344290000482fb0029
:108a40004422dd00ea02420004b82200048242000f
:108a5000140278004822de0004427800ce02900022
:108a6000d44a98004e029000344290000482fb00e9
:108a70004422dd00ec02420004b8220004824200dd
:108a80001402780004427800ce029000e44a980074
:108a90004e029000344290000482fb004422dd002c
:108aa000ec02420004b82200048242001402780062
:108ab0004822de0004427800ce029000f44a98007a
:108ac0004e029000344290000482fb004422dd00fc
:108ad000e402420004b8220004824200140278003a
:108ae000044278006f426200ce02900084529800e7
:108af0004e029000344290000440780002000700cb
:108b00000080fa00000006000200fa00004f780022
:108b100021e1a8000431800062026200e00f5200ef
:108b2000050032001e427800e14f520002003a0078
:108b30002026a9001300370004318000640262007f
:108b4000e00f5200050032001e427800e24f520052
:108b500002003a002046a9000a00370004318000d4
:108b600068026200e00f5200050032001e427800e9
:108b7000e34f520002003a002066a90001003700ce
:108b8000000000000080fa00000006000600fa0065
:108b900004438000154380001407980025079800bf
:108ba00021e1a800043080000480a1000490a1000d
:108bb00004a0a00004308800000000000530800000
:108bc000040e20008482620004082000848f52007a
:108bd000faff3a00ae0290008402200004aab90015
:108be000040378001e0290006022b900040278009d
:108bf000040343009e02900084022000042ab8006f
:108c000005034300860278000401be0000a0250091
:108c10002126200081e307000002be000442780004
:108c20000442e900f443b2008482fb00f403200014
:108c3000048262008630800005fc2f0085026300fc
:108c40000482720084308800843080000460a000b8
:108c50000470a00084308800943080000430a000ac
:108c60000440a0000450a0009430880012e6a80040
:108c7000943080000480a0000490a10004a0a00013
:108c800094308800943080000400a1000410a100fa
:108c90000420a0009430880012c6a8003430800060
:108ca00004d0a10004e0a10004f0a1003430880049
:108cb0000006a800c43080000400a1000410a10038
:108cc000c43088000002eb00843188000002eb0011
:108cd00004328800843180000430a0008431880090
:108ce0000532800074ff2f00048262000432880085
:108cf000043180000400a0000410a1000420a100a1
:108d00000430a100043188001406a800c43080009b
:108d10000420a0000430a100c43088000002eb0051
:108d2000b43188000002eb00a43188000002eb009f
:108d3000343288000002eb0024328800a431800025
:108d40000430a000a4318800243280000430a00048
:108d500024328800043180000440a1000450a000a7
:108d60000460a1000470a100043188001426a8004a
:108d7000c43080000440a0000450a100c43088002a
:108d80009467250054328800041a29004432880070
:108d9000443280000430a000443288000431800056
:108da0000480a0000490a00004a0a10004b0a100d1
:108db000043188001446a8000006a9000430800091
:108dc0000480a1000490a10004a0a1000430880048
:108dd0000082eb00040f78000600370005308000a9
:108de000040e200004826200e00f520005003200f1
:108df0001e0fe9001e027800e00f5200f7ff3a0054
:108e000001003700000000000002eb004431880040
:108e1000443180001431880014318000043188000e
:108e20000002eb005431880030e6a80031e6a900ca
:108e300032e6a90033e6a900843180000400a000d6
:108e40000410a000843188000002eb000431880087
