:020000040000fa
:080000000002040000000000f2
:020000040000fa
:100400004f0322000eb722000e01880000000000fa
:100410000c00070000f72700010020001100070072
:10042000000020000000e000020032000000020096
:1004300000000000582b0200000000000040da001d
:100440000000fe004440a900000122000000e0007e
:100450000300320000002000a00188004440a800f2
:100460000000060091018800800078000000eb0089
:1004700015003700e280400032a0b4009101ba00bc
:10048000e280400032a0b4009102ba00e280400055
:1004900032a0b4000002eb00472bde00f507b200eb
:1004a000602ce10004003a000059eb008301e900f0
:1004b000fdff3e00040037006128e100010032002a
:1004c0000082eb00040007001101ba000200e00006
:1004d000e8ff3a00000006003159ba008301e90044
:1004e0000c0032002159ba008301e90008003200f3
:1004f0000400e00003003a00e280400032a0b400b3
:10050000f5ff370011d9ba008301e900faff3a007c
:100510008100e800e180400032a0b4000000060045
:1005200000000000000000000000000000000000cb
:100530000040da000000fe00f4ff2f001502370033
:10054000889fbe008a9fbe008c1f78002c02070087
:100550003302330003866c006450e1002e00320049
:100560006420e100330032006150e1002f003200ce
:100570006120e1003100320085855500eb07b000b5
:10058000090020000804200005003700080444008a
:1005900089844c000a0031000603430087834b0026
:1005a0000001530081815b00f8ff33000203be00ad
:1005b0000800a0000804440089844c00f6ff3900bc
:1005c000c639dd00830173000100320013002000f2
:1005d0008904d1000884d3000998a30005003200e3
:1005e0000800a7000300a0008904d1000884d300fc
:1005f0008b05e8008904d1000884d3000001eb00da
:100600000281d2001602070001f0a1000cf0a70041
:1006100001f0a0000b0237006420e1000d0232005f
:100620000801be000200be00f7ff37006120e100b4
:10063000080232006000b800f3ff3700000020001d
:1006400001f82700f0ff37000001be002a02070072
:100650000470a70003f0a10003f8a30013003a0000
:100660006509b10010003200090035006928e10079
:1006700002003500010028000000050000004000d5
:10068000818048008502e900fcff3a000000060076
:10069000f88f4200050035008100d1000080d300b2
:1006a0008502e800fcff3a00000006008000eb0035
:1006b000000005006022b800060220000000d00003
:1006c0008180d2000482d2008582d2000000a00086
:1006d0000202520083825a000300310002024200eb
:1006e00083824a000000a1000603e900f3ff3a00fc
:1006f0000000060003f0a200889fbe008a9fbe0093
:100700008c1f7800be010700c50133006450e10072
:100710004f0032006420e1005200320003826c007e
:1007200007003b000905d0000306d000820f5400eb
:100730000c065d00020039000200320089017800d9
:10074000030678008582550004003d000003fd008b
:100750008103fd008502ea008b854200840f720050
:1007600002003b0060001000e08018006011b8003b
:100770000005eb007a28e1000a0039000600780045
:10078000c75ddd00f707b200878075002d003700d8
:10079000828171000a017800610560008180d100ca
:1007a0000080d3008502e900f9ff3b000604400009
:1007b0008784480002003b0060041400e0841c00b1
:1007c0000988a300070032008a81710082817100cc
:1007d000610164008904d1000884d3008b05e8001e
:1007e000170037000978a30013003a000b00e0005f
:1007f000130034008b05e9000804440089844c0090
:100800000a4474000978a3000d003a000b00e000d0
:10081000070034008b05e9000804440089844c007b
:1008200001003a000b0020000978a300f7ff320016
:100830000001eb0002003700828171000a0178009c
:10084000870107000cf0a70001f0a0007d01370030
:100850006420e10002003a00838f6c007d013300c8
:100860000801be000200be0076013700889fbe006e
:100870008a9fbe008c1f7800610107006801330069
:1008800003866c006450e100240032006420e10023
:10089000270032006150e100220032006120e100b7
:1008a000210032008b854200eb07b1000134b80013
:1008b000003ab8000804420089844a00013ab800ae
:1008c0000030b8008880400009014a00040033006d
:1008d0000000400081804800020149008b05e900ca
:1008e000c909dd00830170000100320013002000ff
:1008f000c814de004814dd004709de001200b20013
:10090000c808de00088470005501070001f0a1004e
:100910000cf0a70001f0a0004a0137006120e100bf
:100920004c0132000801be000200be00f7ff370094
:100930006150e100fcff3a00460137000001be00b3
:100940006d0107000470a70003f0a1006509b10064
:10095000160032000d0035006828e1000600350061
:10096000f0ff2f00f1ff27000300e00013003b0021
:1009700001002800000005000000400081804800c0
:100980008502e900fcff3a0008003700f88f4200ba
:1009900002003c008000eb00000005008100d10057
:1009a0000080d3008502e800fcff3a000300e0006d
:1009b00002003b0060001000e0801800000006000c
:1009c000889fbe008a9fbe00010578000100e000fc
:1009d0000400350008003c000000e0002000320068
:1009e0000500370060001000e080180002003b00a6
:1009f00001f02c001a0037000004be006011b8009e
:100a00006b0920000982cf00020039000882cf0064
:100a10000441b000694252000e00320008003b0061
:100a200082817100610164008904d1000884d300cf
:100a30008b05e8000442e800f9ff3a0005003700a2
:100a40000804440089844c008b05e9000442e90055
:100a5000fbff3a00020107000af0a70001f0a00026
:100a60004f05be004f04be00000006001400200029
:100a7000c8003700839f68000100e00002003d00cd
:100a800060001000e08018000300e00002003d005c
:100a900060011100e081190006ff07004f00e0002f
:100aa00002003b0060001000e0801800000006001b
:100ab000889fbe008a9fbe008c9fbe000004be00bf
:100ac0000d0107000800be006420e10048003e0060
:100ad0005500320072212700132b240096fe0700d8
:100ae00047003c000800be00c2ec2800e32c2c00ac
:100af000deff0700470035000800be0001f0a1003e
:100b00000200200003382300d8ff0700430035000f
:100b10000800be00b2a32a0083fb230053ff070096
:100b20000200200003f0230001f0a70003f0a00062
:100b3000f1fe070081ff07000005be00a0ff0700cf
:100b400001f0a2000006be000200280013f32300fb
:100b500046ff07000801be00e7fe0700809fbe00b9
:100b60000c00be0032082800e3952b003fff070071
:100b70004f01be00e0fe07000006be000001be00ff
:100b80003aff0700809fbe004241250083b8230042
:100b900036ff07000200200003e82300d6fe07000e
:100ba0000c01be0031ff07000006be004f00be0072
:100bb000f2f92b00c3d423002cff07000200200011
:100bc00003f02300ccfe07000c01be00c9fe0700a5
:100bd0000001be000c00be0059fe0700020020000c
:100be00003f02300c4fe070061014500d7000700a1
:100bf0004f06be004f05be004f04be0000000600b9
:100c000001f82700000020002202200092f1880055
:100c1000f7ff37006000b800fbff370001f8230042
:100c200000002000f2ff370009f8a300f0ff3200b7
:100c30006000b800eeff3700889fbe008a9fbe00ac
:100c40008c9fbe00e3000700850478000005be000d
:100c50006420e10049003e006220e1000300320010
:100c6000090035000bf8a300440032000bf8a30084
:100c7000080032001002200090f18800f0ff2f00e1
:100c8000f1ff27003d00370001f82f000000200091
:100c90003a0037003d00070096fe07000006be0040
:100ca0000a00be00324f200053f3230022fe07004b
:100cb000060034000c00be00340007008dfe070063
:100cc0000006be000a00be00020037008904e900e9
:100cd0000c00be002d000700e4fe07002b000700fb
:100ce00085fe07000001be000c00be0014fe0700d8
:100cf0000005be000001be00dcfe07000006be00cd
:100d0000a2f32300430d2c007bfe0700809fbe0052
:100d10000c00be00d2e32700d3f02b00d3fe070067
:100d20004f01be0006fe07000006be000a01be001d
:100d3000cefe07000a01be006ffe07000006be00df
:100d40006148b9001eff07000005be0032082800f8
:100d5000e3952b00c5fe07000c01be0066fe0700f0
:100d60000006be000a00be000200280013f32300a4
:100d7000befe07000c01be005ffe07004f06be006e
:100d80004f05be004f04be000000060003f0230024
:100d900002000500889fbe008a9fbe00841f780065
:100da000170007004f00780011003300f0ff2f00fc
:100db000838f6c0006003b00040565000a00a70055
:100dc0000800370009f0a6001000200008003700d6
:100dd000820f5400838f5c00030039001000200054
:100de00001003e000000200009f0a7000000ea001a
:100df0004f05be004f04be000000e00000000600ea
:100e00000004be003c0007000003be000405be0055
:100e10000200be0038000700844f75000000060085
:100e20000200be006450e100050036006420e100cd
:100e3000020036000968a30001003a000800be0065
:100e40000160a0004f0678004f05be004f04be00b1
:100e500000000600f0ff2f00f1ff2700f9ff370028
:100e600081002000618055000b003d000b00200038
:100e700061fe2f000100e1001d003400828171003d
:100e8000610164008904d1000884d3000000e800f7
:100e9000faff3a0071002000610064000300700056
:100ea000020060000900320061044400e0844c004c
:100eb0000988a500050032008b05e8006808e100fc
:100ec00002003a008904d1000884d300f20f200008
:100ed0000258e10005003d00c75ddd00f907b200e2
:100ee0008980750008007800000006000bf82700d4
:100ef0008b00780000000500c70ade00f107b20091
:100f0000f50fb20008003200e1cf420002003200cb
:100f10000170a00024000500810f70000100320064
:100f20000408050044000500810f700002003a002b
:100f3000140005008502e9000000400081c048005f
:100f4000fcff3b000170a000240005000003be0070
:100f5000e9ff07006220e100020032000600be0047
:100f60000000060085024100e30f20000328e10095
:100f700005003c00a3fe2f000328e10007003d0010
:100f80000500200001003700f50f2000200220009e
:100f900090f188006000b8000800370013002000be
:100fa0008381520005003d008100d1000080d30004
:100fb0008301e800fcff3a0005002000c72add009d
:100fc000f107b2008580700007f0a70001f0a000d3
:100fd000000006000003be00c7ff07006220e1001a
:100fe000020032000600be0005000500e507b10062
:100ff000f107b20004f023008480700007f0a7001e
:1010000001f0a00024000500302288000000060046
:101010008fc0a9008fe0a9009000a9009020a9002e
:101020009040a9009060a9008b20a9009fc0a90052
:101030009fe0a900a000a900a020a900a040a9004d
:10104000a060a9009b20a9000000eb000020880000
:1010500000218800002288000023880000248800e6
:101060000025880000268800000006001020880067
:101070000000060000228800112288004222880019
:10108000a322880084228800000006000020880037
:1010900021208800522088003320880000000600ac
:1010a000502288006122880000000600002a880083
:1010b00000000600202a880000000600402a880060
:1010c00000000600602a8800000006008640a90093
:1010d000e10f500002003a009640a80001003700de
:1010e0009640a90067c06000d10a200091407800b6
:1010f00082cfb30082c0600080c070000100780021
:10110000ade0b7000000060090e0a900e10f50003c
:1011100002003a00a0e0a80001003700a0e0a9000a
:1011200067c060004400dd00710d20009140780030
:10113000f2c8b30082c0600080c070000100780077
:10114000d7e0b700000006009100a900e10f5000b1
:1011500002003a00a100a80001003700a100a90088
:1011600067c06000810d20009140780082cfb300fd
:1011700082c0600080c0700001007800d8e0b70035
:10118000000006009120a900e10f500002003a0083
:10119000a120a80001003700a120a90067c06000bd
:1011a0004400dd00810d200091407800f2c8b300ba
:1011b00082c0600080c0700001007800d8e0b700f5
:0411c0000000060025
:020000040000fa
:0200000401f009
:04000c00f8ff0000f9
:020000040000fa
:0200000401f009
:040010003dff0000b0
:020000040000fa
:0200000401f009
:04001400edff0000fc
:020000040000fa
:0200000401f009
:04001800ffff0000e6
:020000040000fa
:0200000401f009
:04001c00deff000003
:020000040000fa
:1000080098020000507f000066710000b471000083
:10001800fe7100004872000098020000980200007b
:10002800980200009802000098020000f2280000e0
:1000380098020000980200009802000004290000bd
:10004800142900009802000098020000980200009d
:100058009802000098020000980200009802000030
:100068009802000098020000367c00009802000008
:100078009802000098020000980200009802000010
:10008800980200009802000098020000242900004d
:10009800322900009802000098020000980200002f
:1000a800980200009802000098020000505b0000cf
:1000b80098020000980200009802000098020000d0
:1000c80098020000980200009802000098020000c0
:1000d80098020000980200009802000098020000b0
:1000e80098020000980200009802000098020000a0
:1000f8009802000098020000980200009802000090
:10010800980200009802000098020000980200007f
:10011800980200009802000098020000980200006f
:10012800980200009802000098020000980200005f
:10013800980200009802000098020000980200004f
:10014800980200009802000098020000980200003f
:10015800980200009802000098020000980200002f
:10016800980200009802000098020000980200001f
:10017800980200009802000098020000980200000f
:1001880098020000980200009802000098020000ff
:1001980098020000980200009802000098020000ef
:1001a80098020000980200009802000098020000df
:1001b8009802000098020000980200005e7c00008f
:1001c800867c0000ae7c00009802000098020000c7
:1001d80098020000980200006a750000407600004e
:1001e8009e760000be76000060770000980200004e
:0801f8009802000098020000cb
:020000040000fa
:1002080098020000507f000066710000b471000081
:10021800fe71000048720000980200009802000079
:10022800980200009802000098020000f2280000de
:1002380098020000980200009802000004290000bb
:10024800142900009802000098020000980200009b
:10025800980200009802000098020000980200002e
:100268009802000098020000367c00009802000006
:10027800980200009802000098020000980200000e
:10028800980200009802000098020000242900004b
:10029800322900009802000098020000980200002d
:1002a800980200009802000098020000505b0000cd
:1002b80098020000980200009802000098020000ce
:1002c80098020000980200009802000098020000be
:1002d80098020000980200009802000098020000ae
:1002e800980200009802000098020000980200009e
:1002f800980200009802000098020000980200008e
:10030800980200009802000098020000980200007d
:10031800980200009802000098020000980200006d
:10032800980200009802000098020000980200005d
:10033800980200009802000098020000980200004d
:10034800980200009802000098020000980200003d
:10035800980200009802000098020000980200002d
:10036800980200009802000098020000980200001d
:10037800980200009802000098020000980200000d
:1003880098020000980200009802000098020000fd
:1003980098020000980200009802000098020000ed
:1003a80098020000980200009802000098020000dd
:1003b8009802000098020000980200005e7c00008d
:1003c800867c0000ae7c00009802000098020000c5
:1003d80098020000980200006a750000407600004c
:1003e8009e760000be76000060770000980200004c
:0803f8009802000098020000c9
:020000040000fa
:1011c4004e95000088e300005fe6000022e800007e
:1011d4006ee9000077ea000055eb000013ec000014
:1011e400bbec000052ed0000daed000057ee000009
:1011f400caee000034ef000098ef0000f6ef0000a4
:101204004ff00000a2f00000f2f000003ef10000f8
:1012140086f10000cbf100000ef200004df2000058
:101224008bf20000c6f20000fff2000036f300006b
:101234006cf30000a0f30000d2f3000003f40000fc
:1012440033f4000061f400008ef40000baf40000ee
:10125400e5f400000ff5000038f5000060f500002b
:1012640087f50000adf50000d3f50000f8f50000a7
:101274001cf600003ff6000061f6000083f6000053
:10128400a5f60000c6f60000e6f6000005f700002b
:1012940024f7000043f7000061f700007ff7000027
:1012a4009cf70000b9f70000d5f70000f1f7000043
:1012b4000cf8000028f8000042f800005df8000077
:1012c40077f8000090f80000aaf80000c3f80000c6
:1012d400dbf80000f4f800000cf9000024f9000029
:1012e4003bf9000052f9000069f9000080f90000a0
:1012f40096f90000adf90000c2f90000d8f9000029
:10130400eef9000003fa000018fa00002dfa0000bc
:1013140041fa000056fa00006afa00007efa000062
:1013240092fa0000a5fa0000b9fa0000ccfa000015
:10133400dffa0000f2fa000005fb000017fb0000d2
:101344002afb00003cfb00004efb000060fb000099
:1013540072fb000083fb000095fb0000a6fb00006d
:10136400b7fb0000c8fb0000d9fb0000eafb00004b
:10137400fbfb00000bfc00001cfc00002cfc00002c
:101384003cfc00004cfc00005cfc00006cfc000019
:101394007cfc00008bfc00009bfc0000aafc00000d
:1013a400b9fc0000c8fc0000d7fc0000e6fc00000b
:1013b400f5fc000004fd000013fd000021fd000009
:1013c40030fd00003efd00004cfd00005afd000011
:1013d40068fd000076fd000084fd000092fd000021
:1013e400a0fd0000aefd0000bbfd0000c9fd000033
:1013f400d6fd0000e3fd0000f1fd0000fefd00004d
:101404000bfe000018fe000025fe000032fe000066
:101414003ffe00004bfe000058fe000065fe000089
:1014240071fe00007efe00008afe000096fe0000b1
:10143400a3fe0000affe0000bbfe0000c7fe0000dc
:10144400d3fe0000dffe0000ebfe0000f7fe00000c
:1014540003ff00000eff00001aff000026ff00003b
:1014640031ff00003dff000048ff000053ff000073
:101474005fff00006aff000075ff000080ff0000ae
:101484008bff000097ff0000a2ff0000adff0000eb
:10149400b7ff0000c2ff0000cdff0000d8ff00002e
:1014a400e3ff0000edff0000f8ff00000100000072
:1014b4000c00000017000000210000002b000000b9
:1014c40036000000400000004a0000005500000003
:1014d4005f00000069000000730000007d00000050
:1014e40087000000910000009b000000a5000000a0
:1014f400af000000b9000000c2000000cc000000f2
:10150400d6000000e0000000e9000000f300000045
:10151400fc000000060100000f010000190100009a
:10152400220100002c010000350100003e010000f2
:1015340048010000510100005a010000630100004d
:101544006c010000760100007f01000088010000aa
:10155400910100009a010000a3010000ac01000009
:10156400b4010000bd010000c6010000cf0100006d
:10157400d8010000e1010000e9010000f2010000cf
:10158400fb010000030200000c0200001402000032
:101594001d020000260200002e0200003602000098
:1015a4003f02000047020000500200005802000001
:1015b400600200006902000071020000790200006c
:1015c400820200008a020000920200009a020000d7
:1015d400a2020000aa020000b2020000bb02000046
:1015e400c3020000cb020000d3020000db020000b3
:1015f400e2020000ea020000f2020000fa02000027
:10160400020300000a030000120300001903000093
:101614002103000029030000310300003803000007
:1016240040030000480300004f030000570300007c
:101634005f030000660300006e03000075030000f2
:101644007d030000840300008c030000930300006a
:101654009b030000a2030000a9030000b1030000e3
:10166400b8030000c0030000c7030000ce0300005d
:10167400d5030000dd030000e4030000eb030000d9
:10168400f2030000fa030000010400000804000053
:101694000f040000160400001d04000024040000d0
:1016a4002b04000032040000390400004004000050
:1016b400470400004e040000550400005c040000d0
:1016c400630400006a040000710400007804000050
:1016d4007f040000860400008d04000093040000d1
:1016e4009a040000a1040000a8040000ae04000055
:1016f400b5040000bc040000c3040000c9040000d9
:10170400d0040000d7040000dd040000e40400005d
:10171400eb040000f1040000f8040000fe040000e3
:10172400050500000c050000120500001905000065
:101734001f050000260500002c05000033050000ed
:10174400390500003f050000460500004c05000077
:1017540053050000590500005f0500006605000000
:101764006c05000072050000790500007f0500008b
:10177400850500008c050000920500009805000016
:101784009e050000a5050000ab050000b1050000a2
:10179400b7050000bd050000c4050000ca0500002f
:1017a400d0050000d6050000dc050000e2050000bd
:1017b400e8050000ee050000f4050000fa0500004d
:1017c40001060000070600000d06000013060000d5
:1017d400190600001f060000250600002b06000065
:1017e40030060000360600003c06000042060000f9
:1017f400480600004e060000540600005a06000089
:1018040060060000660600006b060000710600001a
:10181400770600007d0600008306000089060000ac
:101824008e060000940600009a060000a006000040
:10183400a5060000ab060000b1060000b6060000d5
:10184400bc060000c2060000c8060000cd06000069
:10185400d3060000d9060000de060000e4060000fe
:10186400e9060000ef060000f5060000fa06000095
:1018740000070000050700000b0700001107000027
:10188400160700001c0700002107000027070000be
:101894002c07000032070000370700003d07000056
:1018a40042070000480700004d07000053070000ee
:1018b400580700005d070000630700006807000088
:1018c4006e07000073070000780700007e07000021
:1018d40083070000890700008e07000093070000bb
:1018e400990700009e070000a3070000a907000055
:1018f400ae070000b3070000b9070000be070000f0
:10190400c3070000c8070000ce070000d30700008b
:10191400d8070000dd070000e3070000e807000027
:10192400ed070000f2070000f7070000fd070000c4
:1019340002080000070800000c080000110800005d
:10194400160800001c0800002108000026080000fa
:101954002b08000030080000350800003a08000099
:101964003f08000044080000490800004f08000038
:1019740054080000590800005e08000063080000d5
:10198400680800006d080000720800007708000075
:101994007c08000081080000860800008b08000015
:1019a40090080000950800009a0800009f080000b5
:1019b400a4080000a9080000ae080000b208000056
:1019c400b7080000bc080000c1080000c6080000f9
:1019d400cb080000d0080000d5080000da08000099
:1019e400df080000e3080000e8080000ed0800003c
:1019f400f2080000f7080000fc08000000090000dd
:101a0400050900000a0900000f090000140900007c
:101a1400190900001d09000022090000270900001f
:101a24002c09000030090000350900003a090000c3
:101a34003f09000043090000480900004d09000067
:101a440052090000560900005b090000600900000b
:101a540064090000690900006e09000073090000b0
:101a6400770900007c090000810900008509000055
:101a74008a0900008f0900009309000098090000fa
:101a84009c090000a1090000a6090000aa090000a1
:101a9400af090000b4090000b8090000bd09000046
:101aa400c1090000c6090000ca090000cf090000ee
:101ab400d4090000d8090000dd090000e109000094
:101ac400e6090000ea090000ef090000f30900003c
:101ad400f8090000fd090000010a0000060a0000e0
:101ae4000a0a00000f0a0000130a0000180a000086
:101af4001c0a0000210a0000250a0000290a00002f
:101b04002e0a0000320a0000370a00003b0a0000d7
:101b1400400a0000440a0000490a00004d0a00007f
:101b2400510a0000560a00005a0a00005f0a000029
:101b3400630a0000680a00006c0a0000700a0000d2
:101b4400750a0000790a00007e0a0000820a00007b
:101b5400860a00008b0a00008f0a0000930a000026
:101b6400980a00009c0a0000a00a0000a50a0000d0
:101b7400a90a0000ad0a0000b20a0000b60a00007b
:101b8400ba0a0000bf0a0000c30a0000c70a000026
:101b9400cc0a0000d00a0000d40a0000d80a0000d1
:101ba400dd0a0000e10a0000e50a0000ea0a00007c
:101bb400ee0a0000f20a0000f60a0000fb0a000028
:101bc400ff0a0000030b0000070b00000c0b0000d1
:101bd400100b0000140b0000180b00001c0b00007d
:101be400210b0000250b0000290b00002d0b000029
:101bf400310b0000360b00003a0b00003e0b0000d6
:101c0400420b0000460b00004b0b00004f0b000082
:101c1400530b0000570b00005b0b00005f0b000030
:101c2400640b0000680b00006c0b0000700b0000dc
:101c3400740b0000780b00007c0b0000800b00008c
:101c4400850b0000890b00008d0b0000910b000038
:101c5400950b0000990b00009d0b0000a10b0000e8
:101c6400a50b0000aa0b0000ae0b0000b20b000095
:101c7400b60b0000ba0b0000be0b0000c20b000044
:101c8400c60b0000ca0b0000ce0b0000d20b0000f4
:101c9400d60b0000da0b0000de0b0000e20b0000a4
:101ca400e60b0000ea0b0000ee0b0000f20b000054
:101cb400f60b0000fa0b0000fe0b0000020c000003
:101cc400060c00000a0c00000e0c0000120c0000b0
:101cd400160c00001a0c00001e0c0000220c000060
:101ce400260c00002a0c00002e0c0000320c000010
:101cf400360c00003a0c00003e0c0000420c0000c0
:101d0400460c00004a0c00004e0c0000520c00006f
:101d1400560c00005a0c00005e0c0000620c00001f
:101d2400660c0000690c00006d0c0000710c0000d2
:101d3400750c0000790c00007d0c0000810c000083
:101d4400850c0000890c00008d0c0000900c000034
:101d5400940c0000980c00009c0c0000a00c0000e7
:101d6400a40c0000a80c0000ac0c0000af0c000098
:101d7400b30c0000b70c0000bb0c0000bf0c00004b
:101d8400c30c0000c70c0000ca0c0000ce0c0000fd
:101d9400d20c0000d60c0000da0c0000de0c0000af
:101da400e10c0000e50c0000e90c0000ed0c000063
:101db400f10c0000f50c0000f80c0000fc0c000015
:101dc400000d0000040d0000080d00000b0d0000c4
:101dd4000f0d0000130d0000170d00001a0d000078
:101de4001e0d0000220d0000260d00002a0d00002b
:101df4002d0d0000310d0000350d0000390d0000df
:101e04003c0d0000400d0000440d0000480d000092
:101e14004b0d00004f0d0000530d0000570d000046
:101e24005a0d00005e0d0000620d0000660d0000fa
:101e3400690d00006d0d0000710d0000740d0000af
:101e4400780d00007c0d0000800d0000830d000063
:101e5400870d00008b0d00008e0d0000920d000018
:101e6400960d0000990d00009d0d0000a10d0000cd
:101e7400a40d0000a80d0000ac0d0000b00d000082
:101e8400b30d0000b70d0000bb0d0000be0d000037
:101e9400c20d0000c60d0000c90d0000cd0d0000ec
:101ea400d00d0000d40d0000d80d0000db0d0000a3
:101eb400df0d0000e30d0000e60d0000ea0d000058
:101ec400ee0d0000f10d0000f50d0000f90d00000d
:101ed400fc0d0000000e0000030e0000070e0000c1
:101ee4000b0e00000e0e0000120e0000150e000076
:101ef400190e00001d0e0000200e0000240e00002c
:101f0400270e00002b0e00002f0e0000320e0000e2
:101f1400360e0000390e00003d0e0000410e000098
:101f2400440e0000480e00004b0e00004f0e00004f
:101f3400520e0000560e00005a0e00005d0e000006
:101f4400610e0000640e0000680e00006b0e0000bd
:101f54006f0e0000720e0000760e00007a0e000074
:101f64007d0e0000810e0000840e0000880e00002b
:101f74008b0e00008f0e0000920e0000960e0000e3
:101f8400990e00009d0e0000a00e0000a40e00009b
:101f9400a70e0000ab0e0000ae0e0000b20e000053
:101fa400b50e0000b90e0000bc0e0000c00e00000b
:101fb400c30e0000c70e0000ca0e0000ce0e0000c3
:101fc400d10e0000d50e0000d80e0000dc0e00007b
:101fd400df0e0000e30e0000e60e0000ea0e000033
:101fe400ed0e0000f10e0000f40e0000f80e0000eb
:101ff400fb0e0000ff0e0000020f0000060f0000a1
:10200400090f00000d0f0000100f0000130f000057
:10201400170f00001a0f00001e0f0000210f000010
:10202400250f0000280f00002c0f00002f0f0000c8
:10203400320f0000360f0000390f00003d0f000082
:10204400400f0000440f0000470f00004a0f00003b
:102054004e0f0000510f0000550f0000580f0000f4
:102064005c0f00005f0f0000620f0000660f0000ad
:10207400690f00006d0f0000700f0000730f000067
:10208400770f00007a0f00007e0f0000810f000020
:10209400840f0000880f00008b0f00008f0f0000da
:1020a400920f0000950f0000990f00009c0f000094
:1020b4009f0f0000a30f0000a60f0000aa0f00004e
:1020c400ad0f0000b00f0000b40f0000b70f000008
:1020d400ba0f0000be0f0000c10f0000c50f0000c2
:1020e400c80f0000cb0f0000cf0f0000d20f00007c
:1020f400d50f0000d90f0000dc0f0000df0f000037
:10210400e30f0000e60f0000e90f0000ed0f0000f0
:10211400f00f0000f30f0000f70f0000fa0f0000ab
:10212400fd0f000001100000041000000710000063
:102134000b1000000e10000011100000151000001c
:10214400181000001b1000001f10000022100000d7
:1021540025100000291000002c1000002f10000092
:102164003310000036100000391000003c1000004d
:102174004010000043100000461000004a10000008
:102184004d100000501000005410000057100000c3
:102194005a1000005d10000061100000641000007f
:1021a400671000006b1000006e100000711000003a
:1021b40074100000781000007b1000007e100000f6
:1021c4008210000085100000881000008b100000b1
:1021d4008f1000009210000095100000981000006d
:1021e4009c1000009f100000a2100000a510000029
:1021f400a9100000ac100000af100000b2100000e5
:10220400b6100000b9100000bc100000bf100000a0
:10221400c3100000c6100000c9100000cc1000005c
:10222400d0100000d3100000d6100000d910000018
:10223400dd100000e0100000e3100000e6100000d4
:10224400e9100000ed100000f0100000f310000091
:10225400f6100000fa100000fd100000001100004c
:1022640003110000061100000a1100000d11000006
:102274001011000013110000171100001a110000c2
:102284001d1100002011000023110000271100007f
:102294002a1100002d11000030110000331100003c
:1022a400371100003a1100003d11000040110000f8
:1022b40043110000471100004a1100004d110000b5
:1022c4005011000053110000561100005a11000073
:1022d4005d11000060110000631100006611000030
:1022e4006a1100006d1100007011000073110000ec
:1022f40076110000791100007d11000080110000aa
:102304008311000086110000891100008c11000067
:102314009011000093110000961100009911000023
:102324009c1100009f110000a2110000a6110000e2
:10233400a9110000ac110000af110000b21100009f
:10234400b5110000b9110000bc110000bf1100005c
:10235400c2110000c5110000c8110000cb1100001b
:10236400cf110000d2110000d5110000d8110000d7
:10237400db110000de110000e1110000e411000097
:10238400e8110000eb110000ee110000f111000053
:10239400f4110000f7110000fa110000fe11000012
:1023a4000112000004120000071200000a120000cb
:1023b4000d1200001012000013120000161200008b
:1023c4001a1200001d120000201200002312000047
:1023d40026120000291200002c1200002f12000007
:1023e4003212000036120000391200003c120000c4
:1023f4003f12000042120000451200004812000083
:102404004b1200004e120000511200005512000041
:10241400581200005b1200005e12000061120000fe
:1024240064120000671200006a1200006d120000be
:102434007012000073120000771200007a1200007c
:102444007d1200008012000083120000861200003a
:10245400891200008c1200008f12000092120000fa
:1024640095120000981200009b1200009f120000b9
:10247400a2120000a5120000a8120000ab12000076
:10248400ae120000b1120000b4120000b712000036
:10249400ba120000bd120000c0120000c3120000f6
:1024a400c6120000c9120000cc120000d0120000b5
:1024b400d3120000d6120000d9120000dc12000072
:1024c400df120000e2120000e5120000e812000032
:1024d400eb120000ee120000f1120000f4120000f2
:1024e400f7120000fa120000fd12000000130000b1
:1024f4000313000006130000091300000d1300006d
:102504001013000013130000161300001913000029
:102514001c1300001f1300002213000025130000e9
:10252400281300002b1300002e13000031130000a9
:1025340034130000371300003a1300003d13000069
:102544004013000043130000461300004913000029
:102554004c1300004f1300005213000055130000e9
:10256400581300005b1300005e13000061130000a9
:1025740064130000671300006a1300006d13000069
:102584007013000073130000761300007913000029
:102594007c1300007f1300008213000085130000e9
:1025a400881300008b1300008e13000091130000a9
:1025b40094130000971300009a1300009d13000069
:1025c400a1130000a4130000a7130000aa13000025
:1025d400ad130000af130000b2130000b5130000e8
:1025e400b8130000bb130000be130000c1130000a9
:1025f400c4130000c7130000ca130000cd13000069
:10260400d0130000d3130000d6130000d913000028
:10261400dc130000df130000e2130000e5130000e8
:10262400e8130000eb130000ee130000f1130000a8
:10263400f4130000f7130000fa130000fd13000068
:102644000014000003140000061400000914000024
:102654000c1400000f1400001214000015140000e4
:10266400181400001b1400001e14000021140000a4
:1026740024140000271400002a1400002d14000064
:102684003014000033140000361400003914000024
:102694003c1400003f1400004214000045140000e4
:1026a400481400004a1400004d14000050140000a7
:1026b4005314000056140000591400005c14000068
:1026c4005f14000062140000651400006814000028
:1026d4006b1400006e1400007114000074140000e8
:1026e400771400007a1400007d14000080140000a8
:1026f4008314000086140000891400008c14000068
:102704008e1400009114000094140000971400002b
:102714009a1400009d140000a0140000a3140000eb
:10272400a6140000a9140000ac140000af140000ab
:10273400b2140000b5140000b8140000bb1400006b
:10274400be140000c1140000c4140000c61400002c
:10275400c9140000cc140000cf140000d2140000ef
:10276400d5140000d8140000db140000de140000af
:10277400e1140000e4140000e7140000ea1400006f
:10278400ed140000f0140000f3140000f514000030
:10279400f8140000fb140000fe14000001150000f2
:1027a40004150000071500000a1500000d150000af
:1027b400101500001315000016150000191500006f
:1027c4001c1500001e150000211500002415000032
:1027d400271500002a1500002d15000030150000f3
:1027e4003315000036150000391500003c150000b3
:1027f4003f15000042150000441500004715000075
:102804004a1500004d150000501500005315000036
:1028140056150000591500005c1500005f150000f6
:102824006215000065150000671500006a150000b8
:102834006d1500007015000073150000761500007a
:10284400791500007c1500007f150000821500003a
:1028540085150000871500008a1500008d150000fd
:1028640090150000931500009615000099150000be
:102874009c1500009f150000a2150000a51500007e
:10288400a7150000aa150000ad150000b015000042
:10289400b3150000b6150000b9150000bc15000002
:1028a400bf150000c2150000c5150000c7150000c3
:1028b400ca150000cd150000d0150000d315000086
:1028c400d6150000d9150000dc150000df15000046
:1028d400e2150000e4150000e7150000ea15000009
:1028e400ed150000f0150000f3150000f6150000ca
:1028f400f9150000fc150000fe150000011600008b
:1029040004160000071600000a1600000d16000049
:102914001016000013160000161600001916000009
:102924001b1600001e1600002116000024160000cd
:10293400271600002a1600002d160000301600008d
:102944003316000035160000381600003b16000050
:102954003e16000041160000441600004716000011
:102964004a1600004d1600004f16000052160000d3
:1029740055160000581600005b1600005e16000095
:102984006116000064160000671600006916000056
:102994006c1600006f160000721600007516000019
:1029a400781600007b1600007e16000080160000da
:1029b4008316000086160000891600008c1600009d
:1029c4008f1600009216000095160000981600005d
:1029d4009a1600009d160000a0160000a316000021
:1029e400a6160000a9160000ac160000af160000e1
:1029f400b1160000b4160000b7160000ba160000a5
:102a0400bd160000c0160000c3160000c616000064
:102a1400c8160000cb160000ce160000d116000028
:102a2400d4160000d7160000da160000dd160000e8
:102a3400df160000e2160000e5160000e8160000ac
:102a4400eb160000ee160000f1160000f41600006c
:102a5400f6160000f9160000fc160000ff16000030
:102a64000217000005170000081700000b170000ec
:102a74000d170000101700001317000016170000b0
:102a8400191700001c1700001f1700002117000071
:102a940024170000271700002a1700002d17000034
:102aa40030170000331700003617000038170000f5
:102ab4003b1700003e1700004117000044170000b8
:102ac400471700004a1700004d1700004f17000079
:102ad4005217000055170000581700005b1700003c
:102ae4005e170000611700006317000066170000fe
:102af400691700006c1700006f17000072170000c0
:102b040075170000781700007a1700007d17000081
:102b14008017000083170000861700008917000043
:102b24008c1700008e170000911700009417000006
:102b3400971700009a1700009d170000a0170000c7
:102b4400a2170000a5170000a8170000ab1700008b
:102b5400ae170000b1170000b4170000b71700004b
:102b6400b9170000bc170000bf170000c21700000f
:102b7400c5170000c8170000cb170000cd170000d0
:102b8400d0170000d3170000d6170000d917000093
:102b9400dc170000df170000e1170000e417000055
:102ba400e7170000ea170000ed170000f017000017
:102bb400f3170000f6170000f8170000fb170000d9
:102bc400fe17000001180000041800000718000098
:102bd4000a1800000c1800000f180000121800005a
:102be40015180000181800001b1800001e1800001b
:102bf40020180000231800002618000029180000df
:102c04002c1800002f18000032180000341800009f
:102c1400371800003a1800003d1800004018000062
:102c24004318000046180000481800004b18000024
:102c34004e180000511800005418000057180000e6
:102c44005a1800005d1800005f18000062180000a8
:102c540065180000681800006b1800006e1800006a
:102c6400711800007318000076180000791800002d
:102c74007c1800007f1800008218000085180000ee
:102c8400871800008a1800008d18000090180000b2
:102c94009318000096180000991800009b18000073
:102ca4009e180000a1180000a4180000a718000036
:102cb400aa180000ad180000af180000b2180000f8
:102cc400b5180000b8180000bb180000be180000ba
:102cd400c1180000c4180000c6180000c91800007c
:102ce400cc180000cf180000d2180000d51800003e
:102cf400d8180000da180000dd180000e018000001
:102d0400e3180000e6180000e9180000ec180000c1
:102d1400ee180000f1180000f4180000f718000085
:102d2400fa180000fd180000001900000219000044
:102d340005190000081900000b1900000e19000005
:102d440011190000141900001719000019190000c6
:102d54001c1900001f190000221900002519000089
:102d6400281900002b1900002d190000301900004b
:102d74003319000036190000391900003c1900000d
:102d84003f190000411900004419000047190000d0
:102d94004a1900004d190000501900005319000091
:102da40056190000581900005b1900005e19000054
:102db4006119000064190000671900006a19000015
:102dc4006c1900006f1900007219000075190000d9
:102dd400781900007b1900007e1900008119000099
:102de4008319000086190000891900008c1900005d
:102df4008f1900009219000095190000971900001e
:102e04009a1900009d190000a0190000a3190000e0
:102e1400a6190000a9190000ac190000ae190000a1
:102e2400b1190000b4190000b7190000ba19000064
:102e3400bd190000c0190000c3190000c519000025
:102e4400c8190000cb190000ce190000d1190000e8
:102e5400d4190000d7190000da190000dc190000a9
:102e6400df190000e2190000e5190000e81900006c
:102e7400eb190000ee190000f0190000f31900002e
:102e8400f6190000f9190000fc190000ff190000f0
:102e9400021a0000051a0000071a00000a1a0000ae
:102ea4000d1a0000101a0000131a0000161a000070
:102eb400191a00001c1a00001f1a0000211a000031
:102ec400241a0000271a00002a1a00002d1a0000f4
:102ed400301a0000331a0000361a0000381a0000b5
:102ee4003b1a00003e1a0000411a0000441a000078
:102ef400471a00004a1a00004d1a00004f1a000039
:102f0400521a0000551a0000581a00005b1a0000fb
:102f14005e1a0000611a0000641a0000671a0000bb
:102f2400691a00006c1a00006f1a0000721a00007f
:102f3400751a0000781a00007b1a00007e1a00003f
:102f4400801a0000831a0000861a0000891a000003
:102f54008c1a00008f1a0000921a0000951a0000c3
:102f6400981a00009a1a00009d1a0000a01a000086
:102f7400a31a0000a61a0000a91a0000ac1a000047
:102f8400af1a0000b21a0000b41a0000b71a000009
:102f9400ba1a0000bd1a0000c01a0000c31a0000cb
:102fa400c61a0000c91a0000cc1a0000ce1a00008c
:102fb400d11a0000d41a0000d71a0000da1a00004f
:102fc400dd1a0000e01a0000e31a0000e61a00000f
:102fd400e91a0000eb1a0000ee1a0000f11a0000d2
:102fe400f41a0000f71a0000fa1a0000fd1a000093
:102ff400001b0000031b0000061b0000081b000050
:103004000b1b00000e1b0000111b0000141b000012
:10301400171b00001a1b00001d1b0000201b0000d2
:10302400231b0000251b0000281b00002b1b000095
:103034002e1b0000311b0000341b0000371b000056
:103044003a1b00003d1b0000401b0000421b000017
:10305400451b0000481b00004b1b00004e1b0000da
:10306400511b0000541b0000571b00005a1b00009a
:103074005d1b0000601b0000621b0000651b00005c
:10308400681b00006b1b00006e1b0000711b00001e
:10309400741b0000771b00007a1b00007d1b0000de
:1030a400801b0000831b0000851b0000881b0000a0
:1030b4008b1b00008e1b0000911b0000941b000062
:1030c400971b00009a1b00009d1b0000a01b000022
:1030d400a31b0000a61b0000a81b0000ab1b0000e4
:1030e400ae1b0000b11b0000b41b0000b71b0000a6
:1030f400ba1b0000bd1b0000c01b0000c31b000066
:10310400c61b0000c91b0000cc1b0000ce1b000026
:10311400d11b0000d41b0000d71b0000da1b0000e9
:10312400dd1b0000e01b0000e31b0000e61b0000a9
:10313400e91b0000ec1b0000ef1b0000f21b000069
:10314400f51b0000f71b0000fa1b0000fd1b00002c
:10315400001c0000031c0000061c0000091c0000e9
:103164000c1c00000f1c0000121c0000151c0000a9
:10317400181c00001b1c00001e1c0000211c000069
:10318400241c0000261c0000291c00002c1c00002c
:103194002f1c0000321c0000351c0000381c0000ed
:1031a4003b1c00003e1c0000411c0000441c0000ad
:1031b400471c00004a1c00004d1c0000501c00006d
:1031c400531c0000561c0000591c00005b1c00002e
:1031d4005e1c0000611c0000641c0000671c0000f1
:1031e4006a1c00006d1c0000701c0000731c0000b1
:1031f400761c0000791c00007c1c00007f1c000071
:10320400821c0000851c0000881c00008b1c000030
:103214008e1c0000911c0000941c0000971c0000f0
:10322400991c00009c1c00009f1c0000a21c0000b4
:10323400a51c0000a81c0000ab1c0000ae1c000074
:10324400b11c0000b41c0000b71c0000ba1c000034
:10325400bd1c0000c01c0000c31c0000c61c0000f4
:10326400c91c0000cc1c0000cf1c0000d21c0000b4
:10327400d51c0000d81c0000db1c0000de1c000074
:10328400e11c0000e41c0000e71c0000ea1c000034
:10329400ed1c0000f01c0000f31c0000f61c0000f4
:1032a400f81c0000fb1c0000fe1c0000011d0000b7
:1032b400041d0000071d00000a1d00000d1d000074
:1032c400101d0000131d0000161d0000191d000034
:1032d4001c1d00001f1d0000221d0000251d0000f4
:1032e400281d00002b1d00002e1d0000311d0000b4
:1032f400341d0000371d00003a1d00003d1d000074
:10330400401d0000431d0000461d0000491d000033
:103314004c1d00004f1d0000521d0000551d0000f3
:10332400581d00005b1d00005e1d0000611d0000b3
:10333400641d0000671d00006a1d00006d1d000073
:10334400701d0000731d0000761d0000791d000033
:103354007c1d00007f1d0000821d0000851d0000f3
:10336400881d00008b1d00008e1d0000911d0000b3
:10337400941d0000971d00009a1d00009d1d000073
:10338400a01d0000a31d0000a61d0000a91d000033
:10339400ac1d0000af1d0000b21d0000b51d0000f3
:1033a400b81d0000bb1d0000be1d0000c11d0000b3
:1033b400c41d0000c71d0000ca1d0000ce1d000072
:1033c400d11d0000d41d0000d71d0000da1d00002f
:1033d400dd1d0000e01d0000e31d0000e61d0000ef
:1033e400e91d0000ec1d0000ef1d0000f21d0000af
:1033f400f51d0000f81d0000fb1d0000fe1d00006f
:10340400011e0000041e0000071e00000a1e00002a
:103414000d1e0000101e0000131e0000161e0000ea
:10342400191e00001c1e00001f1e0000221e0000aa
:10343400261e0000291e00002c1e00002f1e000066
:10344400321e0000351e0000381e00003b1e000026
:103454003e1e0000411e0000441e0000471e0000e6
:103464004a1e00004d1e0000501e0000531e0000a6
:10347400561e0000591e00005c1e00005f1e000066
:10348400631e0000661e0000691e00006c1e000022
:103494006f1e0000721e0000751e0000781e0000e2
:1034a4007b1e00007e1e0000811e0000841e0000a2
:1034b400871e00008a1e00008d1e0000911e000061
:1034c400941e0000971e00009a1e00009d1e00001e
:1034d400a01e0000a31e0000a61e0000a91e0000de
:1034e400ac1e0000af1e0000b21e0000b51e00009e
:1034f400b91e0000bc1e0000bf1e0000c21e00005a
:10350400c51e0000c81e0000cb1e0000ce1e000019
:10351400d11e0000d41e0000d71e0000db1e0000d8
:10352400de1e0000e11e0000e41e0000e71e000095
:10353400ea1e0000ed1e0000f01e0000f31e000055
:10354400f61e0000fa1e0000fd1e0000001f000011
:10355400031f0000061f0000091f00000c1f0000cd
:103564000f1f0000121f0000151f0000191f00008c
:103574001c1f00001f1f0000221f0000251f000049
:10358400281f00002b1f00002e1f0000311f000009
:10359400351f0000381f00003b1f00003e1f0000c5
:1035a400411f0000441f0000471f00004a1f000085
:1035b4004e1f0000511f0000541f0000571f000041
:1035c4005a1f00005d1f0000601f0000641f000000
:1035d400671f00006a1f00006d1f0000701f0000bd
:1035e400731f0000761f0000791f00007d1f00007c
:1035f400801f0000831f0000861f0000891f000039
:103604008c1f00008f1f0000931f0000961f0000f6
:10361400991f00009c1f00009f1f0000a21f0000b4
:10362400a61f0000a91f0000ac1f0000af1f000070
:10363400b21f0000b51f0000b81f0000bc1f00002f
:10364400bf1f0000c21f0000c51f0000c81f0000ec
:10365400cb1f0000cf1f0000d21f0000d51f0000a9
:10366400d81f0000db1f0000de1f0000e21f000067
:10367400e51f0000e81f0000eb1f0000ee1f000024
:10368400f11f0000f51f0000f81f0000fb1f0000e1
:10369400fe1f00000120000005200000082000009b
:1036a4000b2000000e200000112000001420000058
:1036b400182000001b2000001e2000002120000014
:1036c40024200000282000002b2000002e200000d1
:1036d4003120000034200000382000003b2000008e
:1036e4003e2000004120000044200000482000004b
:1036f4004b2000004e200000512000005420000008
:10370400582000005b2000005e20000061200000c3
:1037140065200000682000006b2000006e2000007f
:103724007120000075200000782000007b2000003c
:103734007e200000822000008520000088200000f8
:103744008b2000008e2000009220000095200000b5
:10375400982000009b2000009f200000a220000071
:10376400a5200000a8200000ac200000af2000002d
:10377400b2200000b5200000b9200000bc200000e9
:10378400bf200000c2200000c6200000c9200000a5
:10379400cc200000cf200000d3200000d620000061
:1037a400d9200000dc200000e0200000e32000001d
:1037b400e6200000e9200000ed200000f0200000d9
:1037c400f3200000f6200000fa200000fd20000095
:1037d4000021000004210000072100000a2100004c
:1037e4000d21000011210000142100001721000008
:1037f4001b2100001e2100002121000024210000c3
:10380400282100002b2100002e210000322100007d
:1038140035210000382100003b2100003f21000039
:103824004221000045210000492100004c210000f4
:103834004f210000522100005621000059210000b0
:103844005c2100006021000063210000662100006b
:103854006a2100006d210000702100007421000025
:10386400772100007a2100007e21000081210000e0
:1038740084210000882100008b2100008e2100009b
:103884009221000095210000982100009c21000055
:103894009f210000a2210000a6210000a921000010
:1038a400ac210000b0210000b3210000b6210000cb
:1038b400ba210000bd210000c0210000c421000085
:1038c400c7210000ca210000ce210000d121000040
:1038d400d4210000d8210000db210000de210000fb
:1038e400e2210000e5210000e9210000ec210000b4
:1038f400ef210000f3210000f6210000f92100006f
:10390400fd21000000220000032200000722000025
:103914000a2200000e2200001122000014220000de
:10392400182200001b2200001f2200002222000097
:1039340025220000292200002c2200003022000051
:1039440033220000362200003a2200003d2200000b
:103954004022000044220000472200004b220000c5
:103964004e2200005222000055220000582200007e
:103974005c2200005f220000632200006622000037
:10398400692200006d2200007022000074220000f1
:10399400772200007b2200007e22000081220000aa
:1039a40085220000882200008c2200008f22000063
:1039b4009322000096220000992200009d2200001c
:1039c400a0220000a4220000a7220000ab220000d5
:1039d400ae220000b2220000b5220000b92200008d
:1039e400bc220000bf220000c3220000c622000047
:1039f400ca220000cd220000d1220000d4220000ff
:103a0400d8220000db220000df220000e2220000b6
:103a1400e6220000e9220000ed220000f02200006e
:103a2400f3220000f7220000fa220000fe22000028
:103a34000123000005230000082300000c230000dc
:103a44000f23000013230000162300001a23000094
:103a54001d2300002123000024230000282300004c
:103a64002b2300002f230000322300003623000004
:103a7400392300003d2300004023000044230000bc
:103a8400482300004b2300004f2300005223000072
:103a940056230000592300005d230000602300002a
:103aa40064230000672300006b2300006e230000e2
:103ab4007223000075230000792300007d23000099
:103ac4008023000084230000872300008b23000050
:103ad4008e23000092230000952300009923000008
:103ae4009d230000a0230000a4230000a7230000be
:103af400ab230000ae230000b2230000b623000075
:103b0400b9230000bd230000c0230000c42300002b
:103b1400c7230000cb230000cf230000d2230000e2
:103b2400d6230000d9230000dd230000e123000098
:103b3400e4230000e8230000eb230000ef2300004f
:103b4400f3230000f6230000fa230000fd23000005
:103b54000124000005240000082400000c240000b7
:103b64001024000013240000172400001a2400006d
:103b74001e24000022240000252400002924000023
:103b84002d240000302400003424000038240000d8
:103b94003b2400003f24000042240000462400008f
:103ba4004a2400004d240000512400005524000044
:103bb400582400005c2400006024000063240000fa
:103bc400672400006b2400006e24000072240000af
:103bd40076240000792400007d2400008124000064
:103be40085240000882400008c2400009024000018
:103bf40093240000972400009b2400009e240000ce
:103c0400a2240000a6240000a9240000ad24000082
:103c1400b1240000b5240000b8240000bc24000036
:103c2400c0240000c3240000c7240000cb240000eb
:103c3400cf240000d2240000d6240000da2400009f
:103c4400de240000e1240000e5240000e924000053
:103c5400ed240000f0240000f4240000f824000007
:103c6400fb240000ff2400000325000007250000ba
:103c74000b2500000e25000012250000162500006b
:103c84001a2500001d25000021250000252500001f
:103c9400292500002c2500003025000034250000d3
:103ca400382500003c2500003f2500004325000086
:103cb400472500004b2500004f2500005225000039
:103cc400562500005a2500005e25000062250000ec
:103cd40065250000692500006d25000071250000a0
:103ce40075250000782500007c2500008025000053
:103cf40084250000882500008c2500008f25000005
:103d040093250000972500009b2500009f250000b7
:103d1400a3250000a7250000aa250000ae25000069
:103d2400b2250000b6250000ba250000be2500001b
:103d3400c2250000c5250000c9250000cd250000ce
:103d4400d1250000d5250000d9250000dd2500007f
:103d5400e1250000e4250000e8250000ec25000032
:103d6400f0250000f4250000f8250000fc250000e3
:103d74000026000004260000082600000c2600008f
:103d84000f26000013260000172600001b26000043
:103d94001f26000023260000272600002b260000f3
:103da4002f26000033260000372600003b260000a3
:103db4003f26000043260000462600004a26000055
:103dc4004e26000052260000562600005a26000007
:103dd4005e26000062260000662600006a260000b7
:103de4006e26000072260000762600007a26000067
:103df4007e26000082260000862600008a26000017
:103e04008e26000092260000962600009a260000c6
:103e14009e260000a2260000a6260000aa26000076
:103e2400ae260000b2260000b6260000ba26000026
:103e3400be260000c2260000c6260000ca260000d6
:103e4400ce260000d2260000d6260000da26000086
:103e5400df260000e3260000e7260000eb26000032
:103e6400ef260000f3260000f7260000fb260000e2
:103e7400ff26000003270000072700000b2700008f
:103e84000f27000013270000182700001c2700003c
:103e94002027000024270000282700002c270000ea
:103ea4003027000034270000382700003c2700009a
:103eb4004127000045270000492700004d27000046
:103ec4005127000055270000592700005d270000f6
:103ed40062270000662700006a2700006e270000a2
:103ee40072270000762700007a2700007f27000051
:103ef40083270000872700008b2700008f270000fe
:103f040093270000982700009c270000a0270000aa
:103f1400a4270000a8270000ad270000b127000057
:103f2400b5270000b9270000bd270000c227000004
:103f3400c6270000ca270000ce270000d2270000b1
:103f4400d7270000db270000df270000e32700005d
:103f5400e8270000ec270000f0270000f427000009
:103f6400f9270000fd2700000128000005280000b3
:103f74000a2800000e28000012280000162800005d
:103f84001b2800001f280000232800002828000008
:103f94002c280000302800003428000039280000b4
:103fa4003d28000041280000462800004a2800005f
:103fb4004e28000053280000572800005b2800000a
:103fc4005f28000064280000682800006c280000b6
:103fd4007128000075280000792800007e28000060
:103fe40082280000872800008b2800008f2800000a
:103ff40094280000982800009c280000a1280000b4
:10400400a5280000a9280000ae280000b22800005e
:10401400b7280000bb280000bf280000c428000007
:10402400c8280000cd280000d1280000d5280000b1
:10403400da280000de280000e3280000e72800005a
:10404400ec280000f0280000f5280000f928000002
:10405400fd28000002290000062900000b290000a9
:104064000f29000014290000182900001d29000050
:1040740021290000262900002a2900002f290000f8
:1040840033290000382900003c29000041290000a0
:10409400452900004a2900004e2900005329000048
:1040a400572900005c2900006029000065290000f0
:1040b400692900006e290000722900007729000098
:1040c4007b29000080290000842900008929000040
:1040d4008e29000092290000972900009b290000e6
:1040e400a0290000a4290000a9290000ae2900008d
:1040f400b2290000b7290000bb290000c029000034
:10410400c5290000c9290000ce290000d3290000d8
:10411400d7290000dc290000e0290000e52900007f
:10412400ea290000ee290000f3290000f829000024
:10413400fc290000012a0000062a00000a2a0000c7
:104144000f2a0000142a0000182a00001d2a00006b
:10415400222a0000262a00002b2a0000302a000010
:10416400352a0000392a00003e2a0000432a0000b4
:10417400472a00004c2a0000512a0000562a000059
:104184005a2a00005f2a0000642a0000692a0000fd
:104194006d2a0000722a0000772a00007c2a0000a1
:1041a400802a0000852a00008a2a00008f2a000045
:1041b400942a0000982a00009d2a0000a22a0000e8
:1041c400a72a0000ac2a0000b02a0000b52a00008b
:1041d400ba2a0000bf2a0000c42a0000c92a00002d
:1041e400cd2a0000d22a0000d72a0000dc2a0000d1
:1041f400e12a0000e62a0000eb2a0000ef2a000072
:10420400f42a0000f92a0000fe2a0000032b000013
:10421400082b00000d2b0000122b0000172b0000b0
:104224001b2b0000202b0000252b00002a2b000054
:104234002f2b0000342b0000392b00003e2b0000f4
:10424400432b0000482b00004d2b0000522b000094
:10425400572b00005c2b0000612b0000662b000034
:104264006b2b0000702b0000752b00007a2b0000d4
:104274007f2b0000842b0000892b00008e2b000074
:10428400932b0000982b00009d2b0000a22b000014
:10429400a72b0000ac2b0000b12b0000b62b0000b4
:1042a400bb2b0000c02b0000c52b0000ca2b000054
:1042b400d02b0000d52b0000da2b0000df2b0000f0
:1042c400e42b0000e92b0000ee2b0000f32b000090
:1042d400f82b0000fe2b0000032c0000082c00002b
:1042e4000d2c0000122c0000172c00001c2c0000c8
:1042f400222c0000272c00002c2c0000312c000064
:10430400362c00003c2c0000412c0000462c000000
:104314004b2c0000502c0000562c00005b2c00009d
:10432400602c0000652c00006b2c0000702c000039
:10433400752c00007a2c0000802c0000852c0000d5
:104344008a2c00008f2c0000952c00009a2c000071
:104354009f2c0000a52c0000aa2c0000af2c00000c
:10436400b52c0000ba2c0000bf2c0000c52c0000a6
:10437400ca2c0000cf2c0000d52c0000da2c000041
:10438400df2c0000e52c0000ea2c0000ef2c0000dc
:10439400f52c0000fa2c0000002d0000052d000073
:1043a4000a2d0000102d0000152d00001b2d00000b
:1043b400202d0000262d00002b2d0000302d0000a4
:1043c400362d00003b2d0000412d0000462d00003d
:1043d4004c2d0000512d0000572d00005c2d0000d5
:1043e400622d0000672d00006d2d0000722d00006d
:1043f400782d00007d2d0000832d0000892d000004
:104404008e2d0000942d0000992d00009f2d00009a
:10441400a42d0000aa2d0000b02d0000b52d000031
:10442400bb2d0000c02d0000c62d0000cc2d0000c7
:10443400d12d0000d72d0000dc2d0000e22d00005e
:10444400e82d0000ed2d0000f32d0000f92d0000f3
:10445400fe2d0000042e00000a2e0000102e000085
:10446400152e00001b2e0000212e0000262e000019
:104474002c2e0000322e0000382e00003d2e0000ad
:10448400432e0000492e00004f2e0000542e000041
:104494005a2e0000602e0000662e00006c2e0000d4
:1044a400722e0000772e00007d2e0000832e000067
:1044b400892e00008f2e0000952e00009a2e0000f9
:1044c400a02e0000a62e0000ac2e0000b22e00008c
:1044d400b82e0000be2e0000c42e0000ca2e00001c
:1044e400cf2e0000d52e0000db2e0000e12e0000b0
:1044f400e72e0000ed2e0000f32e0000f92e000040
:10450400ff2e0000052f00000b2f0000112f0000cc
:10451400172f00001d2f0000232f0000292f00005b
:104524002f2f0000352f00003b2f0000412f0000eb
:10453400482f00004e2f0000542f00005a2f000077
:10454400602f0000662f00006c2f0000722f000007
:10455400782f00007f2f0000852f00008b2f000094
:10456400912f0000972f00009d2f0000a42f000022
:10457400aa2f0000b02f0000b62f0000bc2f0000af
:10458400c32f0000c92f0000cf2f0000d52f00003b
:10459400dc2f0000e22f0000e82f0000ef2f0000c6
:1045a400f52f0000fb2f0000013000000830000050
:1045b4000e300000143000001b30000021300000d9
:1045c400273000002e300000343000003b30000063
:1045d40041300000473000004e30000054300000ed
:1045e4005b30000061300000683000006e30000075
:1045f400753000007b3000008130000088300000fe
:104604008e300000953000009b300000a230000086
:10461400a9300000af300000b6300000bc3000000c
:10462400c3300000c9300000d0300000d730000093
:10463400dd300000e4300000ea300000f13000001a
:10464400f8300000fe300000053100000c3100009d
:104654001231000019310000203100002631000021
:104664002d310000343100003b31000041310000a5
:10467400483100004f310000563100005c31000029
:10468400633100006a3100007131000078310000ac
:104694007f310000853100008c310000933100002f
:1046a4009a310000a1310000a8310000af310000b0
:1046b400b6310000bd310000c3310000ca31000032
:1046c400d1310000d8310000df310000e6310000b4
:1046d400ed310000f4310000fb3100000232000033
:1046e4000932000010320000183200001f320000ae
:1046f400263200002d320000343200003b3200002c
:1047040042320000493200005032000058320000aa
:104714005f320000663200006d3200007432000027
:104724007c320000833200008a32000091320000a3
:1047340098320000a0320000a7320000ae32000020
:10474400b6320000bd320000c4320000cc3200009a
:10475400d3320000da320000e2320000e932000015
:10476400f0320000f8320000ff320000073300008e
:104774000e330000163300001d3300002533000003
:104784002c330000343300003b330000433300007b
:104794004a330000523300005933000061330000f3
:1047a4006833000070330000783300007f3300006a
:1047b400873300008f330000963300009e330000df
:1047c400a6330000ad330000b5330000bd33000054
:1047d400c4330000cc330000d4330000dc330000c9
:1047e400e4330000eb330000f3330000fb3300003c
:1047f400033400000b340000133400001a340000aa
:10480400223400002a340000323400003a3400001c
:10481400423400004a340000523400005a3400008c
:10482400623400006a340000723400007a340000fc
:10483400823400008a340000923400009a3400006c
:10484400a3340000ab340000b3340000bb340000d8
:10485400c3340000cb340000d4340000dc34000046
:10486400e4340000ec340000f5340000fd340000b2
:10487400053500000d350000163500001e3500001a
:10488400263500002f350000373500004035000084
:1048940048350000503500005935000061350000ee
:1048a4006a350000723500007b3500008335000056
:1048b4008c350000943500009d350000a6350000bd
:1048c400ae350000b7350000c0350000c835000023
:1048d400d1350000da350000e2350000eb35000088
:1048e400f4350000fc350000053600000e360000eb
:1048f400173600002036000028360000313600004c
:104904003a360000433600004c36000055360000ad
:104914005e3600006736000070360000793600000d
:10492400823600008b360000943600009d3600006d
:10493400a6360000af360000b8360000c1360000cd
:10494400ca360000d4360000dd360000e63600002a
:10495400ef360000f9360000023700000b37000084
:10496400143700001e3700002737000030370000de
:104974003a370000433700004d3700005637000037
:104984006037000069370000723700007c37000090
:10499400863700008f37000099370000a2370000e7
:1049a400ac370000b6370000bf370000c93700003d
:1049b400d3370000dc370000e6370000f037000092
:1049c400fa370000033800000d38000017380000e3
:1049d400213800002b380000353800003f38000033
:1049e40049380000533800005d3800006738000083
:1049f400713800007b380000853800008f380000d3
:104a040099380000a3380000ad380000b838000021
:104a1400c2380000cc380000d6380000e13800006d
:104a2400eb380000f5380000003900000a390000b6
:104a3400143900001f3900002939000034390000fe
:104a44003e39000049390000533900005e39000046
:104a540068390000733900007e390000883900008d
:104a6400933900009e390000a9390000b3390000d1
:104a7400be390000c9390000d4390000df39000014
:104a8400ea390000f5390000003a00000b3a000052
:104a9400163a0000213a00002c3a0000373a000090
:104aa400423a00004d3a0000583a0000633a0000d0
:104ab4006f3a00007a3a0000853a0000913a00000b
:104ac4009c3a0000a73a0000b33a0000be3a000046
:104ad400ca3a0000d53a0000e13a0000ec3a00007e
:104ae400f83a0000033b00000f3b00001b3b0000b2
:104af400263b0000323b00003e3b0000493b0000e7
:104b0400553b0000613b00006d3b0000793b000019
:104b1400853b0000913b00009d3b0000a93b000049
:104b2400b53b0000c13b0000cd3b0000d93b000079
:104b3400e63b0000f23b0000fe3b00000a3c0000a4
:104b4400173c0000233c00002f3c00003c3c0000cc
:104b5400483c0000553c0000613c00006e3c0000f5
:104b64007a3c0000873c0000943c0000a13c00001b
:104b7400ad3c0000ba3c0000c73c0000d43c00003f
:104b8400e13c0000ee3c0000fa3c0000073d000060
:104b9400153d0000223d00002f3d00003c3d00007b
:104ba400493d0000563d0000643d0000713d000099
:104bb4007e3d00008c3d0000993d0000a63d0000b4
:104bc400b43d0000c13d0000cf3d0000dd3d0000cc
:104bd400ea3d0000f83d0000063e0000143e0000df
:104be400213e00002f3e00003d3e00004b3e0000f1
:104bf400593e0000673e0000753e0000833e000001
:104c0400923e0000a03e0000ae3e0000bc3e00000c
:104c1400cb3e0000d93e0000e73e0000f63e000017
:104c2400043f0000133f0000223f0000303f00001b
:104c34003f3f00004e3f00005d3f00006c3f00001e
:104c44007a3f0000893f0000983f0000a73f000022
:104c5400b73f0000c63f0000d53f0000e43f00001e
:104c6400f33f000003400000124000002240000017
:104c7400314000004140000050400000604000000e
:104c840070400000804000008f4000009f40000002
:104c9400af400000bf400000cf400000e0400000f3
:104ca400f0400000004100001041000021410000dc
:104cb40031410000414100005241000063410000c5
:104cc400734100008441000095410000a5410000ab
:104cd400b6410000c7410000d8410000e94100008e
:104ce400fb4100000c4200001d4200002e42000067
:104cf4004042000051420000634200007442000040
:104d04008642000098420000aa420000bb42000014
:104d1400cd420000df420000f142000004430000e5
:104d240016430000284300003a4300004d430000ae
:104d34005f43000072430000854300009743000076
:104d4400aa430000bd430000d0430000e343000039
:104d5400f6430000094400001d44000030440000f4
:104d640044440000574400006b4400007e440000ab
:104d740092440000a6440000ba440000ce4400005f
:104d8400e2440000f64400000b4500001f4500000b
:104d940033450000484500005d45000071450000b2
:104da400864500009b450000b0450000c545000055
:104db400db450000f0450000054600001b460000ee
:104dc40030460000464600005c4600007246000083
:104dd400884600009e460000b4460000ca46000013
:104de400e1460000f74600000e470000254700009a
:104df4003c470000534700006a4700008147000019
:104e040098470000b0470000c7470000df47000094
:104e1400f74700000f480000274800003f48000003
:104e2400574800007048000088480000a14800006e
:104e3400b9480000d2480000eb48000005490000d2
:104e44001e49000037490000514900006b49000029
:104e5400854900009f490000b9490000d34900007a
:104e6400ed490000084a0000234a00003e4a0000c1
:104e7400594a0000744a00008f4a0000ab4a0000ff
:104e8400c64a0000e24a0000fe4a00001a4b000035
:104e9400374b0000534b0000704b00008c4b00005c
:104ea400a94b0000c74b0000e44b0000014c00007c
:104eb4001f4c00003d4c00005b4c0000794c00008e
:104ec400984c0000b64c0000d54c0000f44c000097
:104ed400134d0000334d0000524d0000724d000090
:104ee400924d0000b34d0000d34d0000f44d00007e
:104ef400154e0000364e0000574e0000794e00005b
:104f04009b4e0000bd4e0000df4e0000014f00002c
:104f1400244f0000474f00006a4f00008e4f0000ee
:104f2400b24f0000d64f0000fa4f00001f5000009f
:104f340043500000685000008e500000b350000041
:104f4400d950000000510000265100004d510000ce
:104f5400745100009c510000c3510000eb5100004b
:104f6400145200003d520000665200008f520000af
:104f7400b9520000e35200000d5300003853000002
:104f8400635300008f530000bb530000e75300003d
:104f940013540000415400006e5400009c5400005f
:104fa400ca540000f9540000285500005755000069
:104fb40087550000b8550000e95500001a56000056
:104fc4004c5600007e560000b1560000e556000025
:104fd400185700004d57000082570000b7570000d3
:104fe400ed570000245800005b5800009258000060
:104ff400cb580000045900003d59000077590000c7
:10500400b2590000ed5900002a5a0000665a000007
:10501400a45a0000e25a0000215b0000615b00001a
:10502400a15b0000e25b0000245c0000675c000000
:10503400ab5c0000ef5c0000355d00007b5d0000b0
:10504400c25d00000a5e0000545e00009e5e000027
:10505400e95e0000355f0000825f0000d05f000061
:105064002060000070600000c26000001561000054
:1050740069610000be610000156200006d620000fd
:10508400c7620000226300007e630000dc6300004e
:105094003b6400009c640000ff6400006465000041
:1050a400ca650000326600009c66000008670000c4
:1050b40075670000e567000058680000cc680000d0
:1050c40043690000bc690000376a0000b56a00004b
:1050d400366b0000ba6b0000406c0000ca6c000024
:1050e400576d0000e76d00007a6e0000116f00003c
:1050f400ac6f00004b700000ed7000009571000073
:1051040040720000f0720000a6730000607400009a
:1051140020750000e6750000b27600008477000078
:105124005e7800003e790000277a0000177b0000bb
:10513400117c0000137d0000207e0000387f0000f9
:10514400ff7f0000ff7f0000ff7f0000ff7f000063
:10515400ff7f0000ff7f0000ff7f0000ff7f000053
:10516400ff7f0000ff7f0000ff7f0000ff7f000043
:10517400ff7f0000ff7f0000ff7f0000ff7f000033
:10518400ff7f0000ff7f0000ff7f0000ff7f000023
:10519400ff7f0000ff7f0000ff7f0000ff7f000013
:1051a400ff7f0000ff7f0000ff7f0000ff7f000003
:1051b400ff7f0000ff7f0000ff7f00004e9500008e
:1051c40000000000000000000000000000000000db
:1051d40000000000000000000000000000000000cb
:020000040000fa
:10880000889fbe00b0d88000c1d8800020ed8800cd
:1088100031ed8800b0d88000c1d8800032da800005
:1088200043da8000b3df070000ed880011ed880017
:10883000b8d88000c9d8800030da800041da8000e2
:108840000200200003002c0008e007000001be0029
:108850000800be00a8df0700e0ec8800f1ec88000b
:10886000b0d88000c1d8800032da800043da8000be
:10887000a1df0700c0ec8800d1ec8800b0d98000ef
:10888000c1d9800002002c00f37724002cdf070000
:10889000a0ec8800b1ec8800f0d9800001da8000fb
:1088a00002002c00f377240025df070080ec88000d
:1088b00091ec880030d9800041d9800002002c0062
:1088c000f37724001edf070060ec880071ec88005d
:1088d00070d9800081d9800002002c00f377240039
:1088e00017df070040ec880051ec8800d0db8000e7
:1088f000e1db800002002000c3202400dbdf070052
:108900000ee0070020ec880031ec88004f04be0028
:1089100000000600ec42a900cf80de006400500099
:10892000e0805800f00f5000e08f580012003e0029
:1089300000600100650037003d003700530037003c
:10894000930037007200370081003700360037008f
:10895000350037006c00370007003700060037008d
:10896000050037000400370003003700020037001d
:10897000010037002c003700401ae2001f003200cf
:1089800000d28000a2002000110009000280d8005f
:108990000100e0001300320001d28000c008200076
:1089a000808f500007003e0000d280008000e80069
:1089b00001d2880051092000810f500017003e00ad
:1089c00000000600ec62a90000d280008000e800f0
:1089d00001d2880051092000810f5000f8ff3600b5
:1089e0000e003700ec62aa0001d28000c00820000f
:1089f000808f5000ecff3600f2ff3700ec62a800d9
:108a000000d28000a2002000110009000280d800de
:108a10000100e000e0ff3a00f2ff3700403aef00cb
:108a2000e2d18800061a3700ec62aa0000000600b6
:108a3000401ae20001003a00ec62a80000d2800077
:108a4000a2002000110009000280d8000100e0000f
:108a500001003a00ec62aa0001d2800080022000ee
:108a6000808f500017003e0000d280008000e80098
:108a700001d2880051092000810f5000d0ff36003c
:108a8000403aef00e2d18800ed193700401ae200c9
:108a900001003a00ec62a80000d28000a200200091
:108aa000110009000280d8000100e00001003a0036
:108ab000ec62aa0001d28000c0032000808f500029
:108ac000e9ff3600ec62a900e7ff3700401ae20038
:108ad00001003a00ec62a80000d28000a200200051
:108ae000110009000280d8000100e00001003a00f6
:108af000ec62aa0000d28000ea0f5000daff3600d4
:108b0000ec62a900d8ff3700ec42aa000000060082
:108b1000401ae20001003a00ec62a80000d2800096
:108b2000a2002000110009000280d8000100e0002e
:108b300001003a00ec62aa0001d280004006200049
:108b4000808f5000c8ff3600ec62a900c6ff3700d6
:108b5000401ae20001003a00ec62a80000d2800056
:108b6000a2002000110009000280d8000100e000ee
:108b700001003a00ec62aa0001d2800080072000c8
:108b8000808f5000b8ff3600ec62a900b6ff3700b6
:108b9000401ae20001003a00ec62a80000d2800016
:108ba000a2002000110009000280d8000100e000ae
:108bb00001003a00ec62aa0001d28000000520000a
:108bc000808f5000a8ff3600ec62a900a6ff370096
:108bd000c0d08000e2d08000c46329000400b80047
:108be00003002000b3de07000001be00c0bc2b0064
:108bf0000200500000000600889fbe008a9fbe0051
:108c00008c9fbe008e1f78000047780018d280002d
:108c10006140b9006adf07000800e000400035004d
:108c2000d8ea8000e9ea800022f1800033f1800078
:108c30000edf07000801be000cdf07000001be00c8
:108c40000800be00abde07000006be00baea8000e6
:108c5000cbea800010dc800021dc800098ea8000f4
:108c6000a9ea80000801be0080df07000000e000e4
:108c700002003d0010c0b3007efdb70032dc800072
:108c800043dc80000800be0078df07000000e00041
:108c900001003d007e7def000e04e0000100320087
:108ca0007e7def007eddbf000084fb008004eb00d2
:108cb0000a01be000c00be006cdf07000000e000ef
:108cc00015003400090464000900320010d280004d
:108cd000a1c0b300621b0700100020004f077800fe
:108ce0004f06be004f05be004f04be000000060048
:108cf00010d2800061c0b300591b07000800780043
:108d00004f0778004f06be004f05be004f04be005f
:108d100000000600f6ff370019002000e9ff3700c9
:108d2000020020000378240073de0700bcff370038
:108d3000881f7800000478003c1b0700f462a9003b
:108d4000681aa9001000200010d38800e8d188001c
:108d50004f04780000000600a0002000e0d1880049
:108d60000000eb0000d2880010d38800000006004d
:108d700060060500889fbe0022d2800033d28000aa
:108d800080d2800091d28000800f5100818f5900e5
:108d90000600340020d2800031d2800080d28800ca
:108da00091d28800a1d2800071d28800a1d2800027
:108db000d0d28000808f50001e003900d0d28000b9
:108dc000a0d2880010c0b30056fab70010d28000bd
:108dd00010dc800021dc800098ea8000a9ea800095
:108de0000801be0021df07000000e00002003d0096
:108df00010c0b3007efdb70032dc800043dc800091
:108e00000800be0019df07000000e00001003d007f
:108e10007e7def007e7def0010d2800061c0b30048
:108e20000f1b070070172000543ab4004f04be0017
:108e300000000600567aef00e4ff37000800fa0051
:108e4000889fbe008a9fbe008c9fbe0000467800af
:108e5000baeb8000cbeb80009aeb8800abeb88008c
:108e6000b0ea8000c1ea800080bf9f0091bf9f00f0
:108e700090ea8000a1ea8000e0b79f00f1b79f0070
:108e80000001be000fb897009fb8970077de07007b
:108e90000004be00b0eb8800c1eb88000200200097
:108ea000030424006fb09700ffb09700efde0700c7
:108eb0000000e00053003d00e34f56005100320037
:108ec0000801be000a00be00e8de07000000e00066
:108ed0005c003d0000d38000e10f50003c013200f7
:108ee00020fd2f00423ab40010d2800081262b00d2
:108ef000810f50000200360011d28800603aef0066
:108f000011d2800020962000808f500004003e0087
:108f10000000e80010d288001000200000d3880074
:108f200018d280006140b900a5de07000800e0000b
:108f3000bb003500d8ea8000e9ea800022f1800019
:108f400033f1800049de07000801be0047de07005c
:108f50000001be000800be00e6dd07000005be00ff
:108f600012dc800023dc80006fb09700ffb0970018
:108f700071dd07000000e0000200340010c0b30003
:108f80007efdb70032dc800043dc80006fb09700cc
:108f9000ffb09700b5de07000000e00001003d00d3
:108fa0007e7def007eddbf000084fb008004eb00cf
:108fb0000a01be000fb897009fb897005edd07005a
:108fc0000000e000010035001900200009006400e5
:108fd0003800320010d28000a1c0b300a01a0700f0
:108fe00020d2800031d2800040d2880051d2880047
:108ff0004f06be004f05be004f04be000080fa00c1
:1090000000000600e14f5600adff3200310039008c
:10901000e24f560086003200e34f56001001320046
:1090200051c0b3000000eb008d1a07004f06be00d0
:109030004f05be004f04be000080fa00000006008d
:10904000f0ff370072eb800083eb80000fb89700d1
:109050009fb89700a7dd070038de07000001780001
:109060000000e000d80035006110b90054de0700b0
:109070000200200003e823007cde07000000e0007f
